:020000040800F2
:10000000203C0120553C0008713C0008753C00086C
:10001000793C00087D3C0008813C0008000000009D
:10002000000000000000000000000000853C000807
:10003000893C0008000000008D3C0008913C00084D
:10004000953C0008993C00089D3C0008A13C000834
:10005000A53C0008A93C0008AD3C0008B13C0008E4
:10006000B53C0008B93C0008BD3C0008C13C000894
:10007000C53C0008C93C0008CD3C0008D13C000844
:10008000D53C0008D93C0008DD3C0008E13C0008F4
:10009000E53C0008E93C0008ED3C00088F3800080A
:1000A000F13C0008F53C0008F93C000897370008CF
:1000B000FD3C0008013D0008053D0008093D000821
:1000C0000D3D0008113D0008153D0008193D0008D0
:1000D0001D3D0008B9380008213D0008253D0008F5
:1000E000293D00082D3D0008313D0008353D000840
:1000F000393D00083D3D000813380008413D000827
:10010000453D0008493D00084D3D0008513D0008AF
:10011000553D0008593D00085D3D0008613D00085F
:10012000653D0008693D00086D3D0008713D00080F
:10013000753D0008793D00087D3D0008813D0008BF
:10014000853D0008893D00088D3D0008913D00086F
:10015000953D0008993D00089D3D0008A13D00081F
:10016000A53D0008A93D0008AD3D0008B13D0008CF
:10017000B53D0008B93D0008BD3D0008C13D00087F
:10018000C53D0008C93D0008F8B500F0F6FC0028A0
:1001900013D0022867D03BD3042800F0BA80C0F007
:1001A0008D80062800F0C982C0F0BD81082800F0CB
:1001B000D884C0F0CC8300F0DFBCDFF8B00C00685E
:1001C00002F040F9DFF8A82CDFF8A83C1B6802EB2E
:1001D000C302D2E9002302F05BF902F02FFADFF844
:1001E000981C0860DFF88C0C0068401CDFF8841C49
:1001F0000860DFF8880C0068401EDFF8841C086087
:1002000002F057FE02F048FE02F061FE00F0B4BCBE
:10021000DFF8580C006802F015F9DFF8542CDFF80D
:10022000543C1B6802EBC302D2E9002302F030F910
:1002300002F004FADFF8401C0860DFF8380C0068B0
:10024000401CDFF8301C0860DFF8300C0068401EEE
:10025000DFF82C1C086002F033FE02F01DFE02F0F5
:1002600036FE00F089BCDFF8040C006802F0EAF802
:10027000DFF8102CDFF8FC3B1B6802EBC302D2E96D
:10028000002302F005F902F0D9F9DFF8FC1B086041
:10029000DFF8E00B0068401CDFF8D81B0860DFF8CF
:1002A000DC0B0068401EDFF8E41B086002F02AFE49
:1002B00002F01BFE02F0E2FD00F05EBCDFF8AC0BCA
:1002C000006802F0BFF8DFF8BC2BDFF8A83B1B6822
:1002D00002EBC302D2E9002302F0DAF802F0AEF931
:1002E000DFF8A41B0860DFF88C0B0068401CDFF807
:1002F000841B0860DFF8840B0068401EDFF88C1B4D
:10030000086002F006FE02F0F0FD02F0B7FD00F01A
:1003100033BCDFF8580B006802F094F8DFF8502B7C
:10032000DFF8503B1B6802EBC302D2E9002302F066
:10033000AFF802F083F9DFF8401B0860DFF82C0B00
:10034000006802F07FF8DFF83C2BDFF8283B1B68E1
:1003500002EBC302D2E9002302F09AF802F06EF930
:10036000DFF8241B0860DFF8040B006802F06AF86D
:10037000DFF8FC2ADFF8FC3A1B6802EBC30252E903
:10038000022302F085F804000D00DFF8EC0A006893
:1003900002F058F802000B002000290002F000FFD4
:1003A00002F04CF9DFF8A41D0860DFF8C00A00680D
:1003B00002F048F8DFF8CC2ADFF8B83A1B6802EB05
:1003C000C30252E9022302F063F804000D00DFF8D3
:1003D000B80A006802F036F802000B00200029007D
:1003E00002F0DEFE02F02AF9DFF8641D0860DFF893
:1003F000840A0068401CDFF87C1A0860DFF84C0DA6
:10040000006802F01FF804000D00DFF8440D0068DA
:1004100002F018F806000F002000290022002B002F
:1004200002F036F804000D003000390032003B00C5
:1004300002F02EF822002B0002F0F4FD02F022FF61
:1004400004000D00DFF8340A006801F0FBFF06002D
:100450000F00DFF8FC0C006802F08DFF01F0F2FFE6
:1004600002000B002000290002F08AFF32003B004E
:1004700002F00EF80022DFF8DC3C02F0D3FD03F0BE
:10048000A3F8DFF8081A0860DFF8C00C006801F074
:10049000D9FF04000D00DFF8B80C006801F0D2FFAE
:1004A00006000F002000290022002B0001F0F0FFC1
:1004B00004000D003000390032003B0001F0E8FF7D
:1004C00022002B0002F0AEFD02F0DCFE04000D0065
:1004D000DFF8A809006801F0B5FF06000F00DFF89B
:1004E0006C0C006802F047FF01F0ACFF02000B004B
:1004F0002000290002F044FF32003B0001F0C8FF59
:100500000022DFF8503C02F08DFD03F05DF8DFF8CB
:100510007019086002F0CDFC02F0F4FC02F0BCFCA3
:1005200002F0E3FC28E3DFF84409006801F08AFFE9
:10053000DFF83C29DFF83C391B6802EBC302D2E943
:10054000002301F0A5FF02F079F8DFF82C1908600C
:10055000DFF81809006801F075FFDFF82829DFF8D7
:1005600014391B6802EBC302D2E9002301F090FFAB
:1005700002F064F8DFF810190860DFF8F00800688E
:1005800001F060FFDFF8E828DFF8E8381B6802EBCD
:10059000C30252E9022301F07BFF04000D00DFF8E3
:1005A000D808006801F04EFF02000B00200029006F
:1005B00002F0F6FD02F042F8DFF8901B0860DFF869
:1005C000AC08006801F03EFFDFF8B828DFF8A43877
:1005D0001B6802EBC30252E9022301F059FF040039
:1005E0000D00DFF8A408006801F02CFF02000B00EA
:1005F0002000290002F0D4FD02F020F8DFF8501BA3
:100600000860DFF870080068401CDFF868180860B0
:10061000DFF8380B006801F015FF04000D00DFF86B
:10062000300B006801F00EFF06000F0020002900CB
:1006300022002B0001F02CFF04000D0030003900D7
:1006400032003B0001F024FF22002B0002F0EAFC04
:1006500002F018FE04000D00DFF82008006801F029
:10066000F1FE06000F00DFF8E80A006802F083FEE2
:1006700001F0E8FE02000B002000290002F080FEDD
:1006800032003B0001F004FF0022DFF8C83A02F01C
:10069000C9FC02F099FFDFF8F4170860DFF8AC0A34
:1006A000006801F0CFFE04000D00DFF8A40A006826
:1006B00001F0C8FE06000F002000290022002B00D8
:1006C00001F0E6FE04000D003000390032003B006E
:1006D00001F0DEFE22002B0002F0A4FC02F0D2FDAD
:1006E00004000D00DFF89407006801F0ABFE06007F
:1006F0000F00DFF8580A006802F03DFE01F0A2FE8C
:1007000002000B002000290002F03AFE32003B00FC
:1007100001F0BEFE0022DFF83C3A02F083FC02F05A
:1007200053FFDFF85C17086002F0C3FB02F0F1FB37
:1007300002F0B2FB02F0D9FB1EE2DFF830070068DE
:1007400001F080FEDFF82827DFF828371B6802EB6E
:10075000C302D2E9002301F09BFE01F06FFFDFF836
:1007600018170860DFF80407006801F06BFEDFF877
:100770001427DFF800371B6802EBC302D2E900231D
:1007800001F086FE01F05AFFDFF8FC160860DFF882
:10079000DC06006801F056FEDFF8D426DFF8D43618
:1007A0001B6802EBC30252E9022301F071FE040050
:1007B0000D00DFF8C406006801F044FE02000B00E3
:1007C0002000290002F0ECFC01F038FFDFF87C1972
:1007D0000860DFF89806006801F034FEDFF8A42610
:1007E000DFF890361B6802EBC30252E9022301F0E6
:1007F0004FFE04000D00DFF89006006801F022FEB5
:1008000002000B002000290002F0CAFC01F016FFD4
:10081000DFF83C190860DFF85C060068401CDFF870
:1008200054160860DFF82409006801F00BFE04008C
:100830000D00DFF81C09006801F004FE06000F003F
:100840002000290022002B0001F022FE04000D00F0
:100850003000390032003B0001F01AFE22002B006C
:1008600002F0E0FB02F00EFD04000D00DFF80C06C4
:10087000006801F0E7FD06000F00DFF8D40800680B
:1008800002F079FD01F0DEFD02000B0020002900DE
:1008900002F076FD32003B0001F0FAFD0022DFF8A5
:1008A000B43802F0BFFB02F08FFEDFF8E0150860FD
:1008B000DFF89808006801F0C5FD04000D00DFF8BE
:1008C0009008006801F0BEFD06000F00200029001E
:1008D00022002B0001F0DCFD04000D003000390087
:1008E00032003B0001F0D4FD22002B0002F09AFB05
:1008F00002F0C8FC04000D00DFF88005006801F07C
:10090000A1FD06000F00DFF84408006802F033FD87
:1009100001F098FD02000B002000290002F030FDDC
:1009200032003B0001F0B4FD0022DFF8283802F06D
:1009300079FB02F049FEDFF84815086002F0C0FAC2
:1009400002F0E0FA02F0A8FA02F0CFFA14E1DFF8C0
:100950001C05006801F076FDDFF81425DFF814357A
:100960001B6802EBC302D2E9002301F091FD01F004
:1009700065FEDFF804150860DFF8F004006801F098
:1009800061FDDFF80025DFF8EC341B6802EBC302E1
:10099000D2E9002301F07CFD01F050FEDFF8E814FD
:1009A0000860DFF8C804006801F04CFDDFF8C024DF
:1009B000DFF8C0341B6802EBC30252E9022301F0E6
:1009C00067FD04000D00DFF8B004006801F03AFD97
:1009D00002000B002000290002F0E2FB01F02EFED5
:1009E000DFF868170860DFF88404006801F02AFD6A
:1009F000DFF89024DFF87C341B6802EBC30252E975
:100A0000022301F045FD04000D00DFF87C040068BE
:100A100001F018FD02000B002000290002F0C0FBCD
:100A200001F00CFEDFF828170860DFF848040068C2
:100A3000401CDFF840140860DFF81007006801F080
:100A400001FD04000D00DFF80807006801F0FAFC62
:100A500006000F002000290022002B0001F018FDE5
:100A600004000D003000390032003B0001F010FDA1
:100A700022002B0002F0D6FA02F004FC04000D0064
:100A8000DFF8F803006801F0DDFC06000F00DFF876
:100A9000C006006802F06FFC01F0D4FC02000B00FD
:100AA0002000290002F06CFC32003B0001F0F0FC59
:100AB0000022DFF8A03602F0B5FA02F085FDDFF87B
:100AC000CC130860DFF88406006801F0BBFC04006A
:100AD0000D00DFF87C06006801F0B4FC06000F0092
:100AE0002000290022002B0001F0D2FC04000D00A0
:100AF0003000390032003B0001F0CAFC22002B001C
:100B000002F090FA02F0BEFB04000D00DFF86C0367
:100B1000006801F097FC06000F00DFF8300600685F
:100B200002F029FC01F08EFC02000B0020002900DD
:100B300002F026FC32003B0001F0AAFC0022DFF8A4
:100B4000143602F06FFA02F03FFDDFF8341308604C
:100B500002F0B6F902F0DDF902F09EF902F0C5F9F3
:100B60000AE0DFF810030068401CDFF80813086093
:100B700002F092F902F0B9F9F1BD80B5BC48BD4967
:100B8000096800EBC10050E90201B94AB94B1B6882
:100B900002EBC302D2E9002302F028FD16D2B948C5
:100BA000B449096800EBC10050E90223B548B149D6
:100BB000096800EBC100D0E9000102F031FD05D168
:100BC0000020DFF89415087000204DE1A848A949DD
:100BD000096800EBC100D0E90001A54AA54B1B68DC
:100BE00002EBC30252E9022302F000FD16D2A5482F
:100BF000A049096800EBC10050E90223A1489D49C2
:100C0000096800EBC100D0E9000102F009FD05D13F
:100C10000120DFF844150870012025E1944895492A
:100C2000096800EBC10050E9022391489149096825
:100C300000EBC100D0E9000102F0F2FC16D19148AE
:100C40008C49096800EBC10050E902018D4A894BCB
:100C50001B6802EBC302D2E9002302F0C7FC05D2F5
:100C60000020DFF8F81408700220FDE08048814978
:100C7000096800EBC10050E902237D487D490968FD
:100C800000EBC100D0E9000102F0CAFC16D17D489A
:100C90007849096800EBC100D0E90001794A754B39
:100CA0001B6802EBC30252E9022302F09FFC05D24B
:100CB0000120DFF8A81408700320D5E06C486D49C6
:100CC000096800EBC10050E90201694A694B1B68E1
:100CD00002EBC302D2E9002302F088FC1AD2694871
:100CE0006449096800EBC10050E90201654A614BA3
:100CF0001B6802EBC302D2E9002302F077FC09D2A1
:100D00000020DFF8541408700020DFF85014087039
:100D10000420A9E056485749096800EBC10050E992
:100D20000201534A534B1B6802EBC302D2E9002372
:100D300002F05CFC1AD253484E49096800EBC1002E
:100D4000D0E900014F4A4B4B1B6802EBC30252E94A
:100D5000022302F04BFC09D20020DFF8FC130870DC
:100D60000120DFF8F813087005207DE04048414974
:100D7000096800EBC100D0E900013D4A3D4B1B680A
:100D800002EBC30252E9022302F030FC18D23D48C4
:100D90003849096800EBC10050E90201394A354B76
:100DA0001B6802EBC302D2E9002302F01FFC07D24A
:100DB0000120E94908700020E8490870062053E046
:100DC0002B482C49096800EBC100D0E90001284AF2
:100DD000284B1B6802EBC30252E9022302F006FC17
:100DE00018D228482349096800EBC100D0E9000166
:100DF000244A204B1B6802EBC30252E9022302F093
:100E0000F5FB07D20120D44908700120D3490870AE
:100E1000072029E016481749096800EBC10050E98E
:100E2000022313481349096800EBC100D0E900010F
:100E300002F0F6FB18D113480E49096800EBC10017
:100E400050E902230F480B49096800EBC100D0E9C3
:100E5000000102F0E5FB07D10220BF490870022023
:100E6000BE4908700820FFE702BD00000400002012
:100E7000509C0020B0370120E03701200000002006
:100E80002C040140D0C10020E83701202C00014093
:100E90002DE9F84F0026002740E10020DFF8A81CCC
:100EA00032003B0002F07CF904000D000020DFF866
:100EB000981C32003B0002F073F9804689462200FC
:100EC0002B002000290001F0E3FA22002B0001F0A2
:100ED000DFFADFF8782CDFF8783C1B6802EBC302FE
:100EE000D2E9002301F0D4FA04000D000020DFF85D
:100EF000641C32003B0001F0CBFA82468B46404630
:100F0000494642464B4601F0C3FA52465B4601F061
:100F1000BFFADFF8382CDFF8383C1B6802EBC3025D
:100F2000D2E9022301F0B4FA22002B0002F07AF891
:100F300004000D0032003B003000390001F0A8FA37
:100F40000022DFF8103C01F0A3FA80468946002019
:100F5000DFF8F41B32003B0002F022F942464B4618
:100F600001F096FADFF8E42BDFF8E43B1B6802EBB4
:100F7000C302D2E9042301F08BFA22002B0002F015
:100F800051F804000D0032003B003000390001F040
:100F90007FFA32003B0001F07BFADFF8B02BDFF87C
:100FA000B03B1B6802EBC302D2E9062301F070FAE2
:100FB00022002B0002F036F8DFF89C2BDFF89C3B78
:100FC0001B6802EBC302C2E900010020DFF8781BB6
:100FD00032003B0002F0E4F804000D000020DFF8CE
:100FE000681B32003B0002F0DBF880468946220095
:100FF0002B002000290001F04BFA22002B0001F009
:1010000047FADFF85C2BDFF8483B1B6802EBC302B2
:10101000D2E9002301F03CFA04000D000020DFF8C3
:10102000341B32003B0001F033FA82468B464046C7
:10103000494642464B4601F02BFA52465B4601F0C8
:1010400027FADFF81C2BDFF8083B1B6802EBC30212
:10105000D2E9022301F01CFA22002B0001F0E2FF8A
:1010600004000D0032003B003000390001F010FA9E
:101070000022DFF8E03A01F00BFA804689460020B2
:10108000DFF8C41A32003B0002F08AF842464B46B1
:1010900001F0FEF9DFF8C82ADFF8B43A1B6802EB6A
:1010A000C302D2E9042301F0F3F922002B0001F07E
:1010B000B9FF04000D0032003B003000390001F0A0
:1010C000E7F932003B0001F0E3F9DFF8942ADFF89A
:1010D000803A1B6802EBC302D2E9062301F0D8F97B
:1010E00022002B0001F09EFFDFF8782ADFF86C3A2F
:1010F0001B6802EBC302C2E90001DFF8600A006866
:10110000401CDFF8581A0860DFF85C0ADFF85C1A48
:1011100032003B0001F086FF06000F00300039006E
:10112000DFF84C2ADFF84C3A02F060FAFFF4B5AE73
:10113000DFF81C0A0068001DDFF8141A08600020A0
:10114000DFF8181A0860BDE8F18F0000C0370120F1
:10115000C43701200000F0BF080000200900002073
:10116000F8B500F009FD002813D0022867D03BD362
:10117000042800F0BA80C0F08D80062800F0C982F3
:10118000C0F0BD81082800F0D384C0F0CB8300F00C
:10119000DABCDFF88C0D006801F054F9DFF8B829EB
:1011A000DFF8803D1B6802EBC302D2E9002301F0A7
:1011B0006FF901F043FADFF8701D0860DFF8640D85
:1011C0000068401CDFF85C1D0860DFF8600D0068F7
:1011D000401EDFF85C1D086001F06BFE01F05CFE54
:1011E00001F075FE00F0AFBCDFF8340D006801F0CF
:1011F00029F9DFF86429DFF82C3D1B6802EBC302F4
:10120000D2E9002301F044F901F018FADFF8181DC3
:101210000860DFF8100D0068401CDFF8081D08604A
:10122000DFF8080D0068401EDFF8041D086001F0BB
:1012300047FE01F031FE01F04AFE00F084BCDFF809
:10124000E00C006801F0FEF8DFF81829DFF8D43C64
:101250001B6802EBC302D2E9002301F019F901F087
:10126000EDF9DFF8D01C0860DFF8B80C0068401C0E
:10127000DFF8B01C0860DFF8B40C0068401EDFF82F
:10128000B81C086001F03EFE01F02FFE01F0F6FDF3
:1012900000F059BCDFF8880C006801F0D3F8DFF8E3
:1012A000C428DFF8803C1B6802EBC302D2E90023AC
:1012B00001F0EEF801F0C2F9DFF8781C0860DFF801
:1012C000640C0068401CDFF85C1C0860DFF85C0CF4
:1012D0000068401EDFF8601C086001F01AFE01F093
:1012E00004FE01F0CBFD00F02EBCDFF8340C0068EA
:1012F00001F0A8F8DFF86028DFF8283C1B6802EB53
:10130000C302D2E9002301F0C3F801F097F9DFF836
:10131000181C0860DFF8080C006801F093F8DFF88B
:101320004428DFF8003C1B6802EBC302D2E900232B
:1013300001F0AEF801F082F9DFF8F81B0860DFF881
:10134000E00B006801F07EF8DFF80C28DFF8D43BF2
:101350001B6802EBC30252E9022301F099F8040072
:101360000D00DFF8C40B006801F06CF802000B0000
:101370002000290001F014FF01F060F9DFF8BC1B28
:101380000860DFF89C0B006801F05CF8DFF8D427F8
:10139000DFF8903B1B6802EBC30252E9022301F025
:1013A00077F804000D00DFF88C0B006801F04AF8B4
:1013B00002000B002000290001F0F2FE01F03EF9CE
:1013C000DFF87C1B0860DFF85C0B0068401CDFF86E
:1013D000541B0860DFF8640B006801F033F8040068
:1013E0000D00DFF85C0B006801F02CF806000F0020
:1013F0002000290022002B0001F04AF804000D0013
:101400003000390032003B0001F042F822002B008E
:1014100001F008FE01F036FF04000D00DFF80C0BB0
:10142000006801F00FF806000F00DFF8140B0068E9
:1014300001F0A1FF01F006F802000B0020002900D6
:1014400001F09EFF32003B0001F022F80022DFF89D
:10145000F43A01F0E7FD02F0B7F8DFF8DC1A0860B3
:10146000DFF8D80A006800F0EDFF04000D00DFF897
:10147000D00A006800F0E6FF06000F0020002900F7
:1014800022002B0001F004F804000D0030003900A8
:1014900032003B0000F0FCFF22002B0001F0C2FDF7
:1014A00001F0F0FE04000D00DFF8800A006800F093
:1014B000C9FF06000F00DFF8840A006801F05BFF37
:1014C00000F0C0FF02000B002000290001F058FFCF
:1014D00032003B0000F0DCFF0022DFF8683A01F048
:1014E000A1FD02F071F8DFF8481A086001F0E1FC94
:1014F00001F008FD01F0D0FC01F0F7FC23E3DFF878
:10150000200A006800F09EFFDFF84C26DFF8143A4E
:101510001B6802EBC302D2E9002300F0B9FF01F01F
:101520008DF8DFF8041A0860DFF8F409006800F0AD
:1015300089FFDFF83026DFF8EC391B6802EBC302C5
:10154000D2E9002300F0A4FF01F078F8DFF8E419F5
:101550000860DFF8CC09006800F074FFDFF8F825B8
:10156000DFF8C0391B6802EBC30252E9022300F026
:101570008FFF04000D00DFF8B009006800F062FF83
:1015800002000B002000290001F00AFE01F056F8CD
:10159000DFF8A8190860DFF88809006800F052FF3A
:1015A000DFF8C025DFF87C391B6802EBC30252E983
:1015B000022300F06DFF04000D00DFF878090068D9
:1015C00000F040FF02000B002000290001F0E8FDC0
:1015D00001F034F8DFF868190860DFF8480900689E
:1015E000401CDFF840190860DFF85009006800F07F
:1015F00029FF04000D00DFF84809006800F022FF11
:1016000006000F002000290022002B0000F040FF00
:1016100004000D003000390032003B0000F038FFBC
:1016200022002B0001F0FEFC01F02CFE04000D0056
:10163000DFF8F808006800F005FF06000F00DFF88B
:101640000009006801F097FE00F0FCFE02000B00AC
:101650002000290001F094FE32003B0000F018FF4A
:101660000022DFF8E03801F0DDFC01F0ADFFDFF82B
:10167000C8180860DFF8C408006800F0E3FE040042
:101680000D00DFF8BC08006800F0DCFE06000F006B
:101690002000290022002B0000F0FAFE04000D00BB
:1016A0003000390032003B0000F0F2FE22002B0037
:1016B00001F0B8FC01F0E6FD04000D00DFF86C0855
:1016C000006800F0BFFE06000F00DFF87008006839
:1016D00001F051FE00F0B6FE02000B0020002900D0
:1016E00001F04EFE32003B0000F0D2FE0022DFF897
:1016F000543801F097FC01F067FFDFF834180860F8
:1017000001F0D7FB01F005FC01F0C6FB01F0EDFB99
:1017100019E2DFF80C08006800F094FEDFF83824C6
:10172000DFF800381B6802EBC302D2E9002300F0A7
:10173000AFFE00F083FFDFF8F0170860DFF8E00786
:10174000006800F07FFEDFF81C24DFF8D8371B6844
:1017500002EBC302D2E9002300F09AFE00F06EFF14
:10176000DFF8D0170860DFF8B807006800F06AFEFD
:10177000DFF8E423DFF8AC371B6802EBC30252E961
:10178000022300F085FE04000D00DFF89C070068CE
:1017900000F058FE02000B002000290001F000FDBF
:1017A00000F04CFFDFF894170860DFF8740700685A
:1017B00000F048FEEB4ADFF86C371B6802EBC3020F
:1017C00052E9022300F064FE04000D00DFF8640714
:1017D000006800F037FE02000B002000290001F035
:1017E000DFFC00F02BFFDFF858170860DFF8340744
:1017F0000068401CDFF82C170860DFF8400700681D
:1018000000F020FE04000D00DFF83407006800F04F
:1018100019FE06000F002000290022002B0000F016
:1018200037FE04000D003000390032003B0000F0AC
:101830002FFE22002B0001F0F5FB01F023FD040038
:101840000D00DFF8E806006800F0FCFD06000F0060
:10185000DFF8EC06006801F08EFD00F0F3FD0200F9
:101860000B002000290001F08BFD32003B0000F04E
:101870000FFE0022DFF8CC3601F0D4FB01F0A4FE0D
:10188000DFF8B4160860DFF8B406006800F0DAFD8F
:1018900004000D00DFF8A806006800F0D3FD060084
:1018A0000F002000290022002B0000F0F1FD0400B1
:1018B0000D003000390032003B0000F0E9FD22004D
:1018C0002B0001F0AFFB01F0DDFC04000D00DFF8A0
:1018D0005C06006800F0B6FD06000F00DFF85C064D
:1018E000006801F048FD00F0ADFD02000B00200093
:1018F000290001F045FD32003B0000F0C9FD002247
:10190000DFF8403601F08EFB01F05EFEDFF82016B6
:10191000086001F0D5FA01F0F5FA01F0BDFA01F026
:10192000E4FA10E1DFF8F805006800F08BFD8A4A60
:10193000DFF8F0351B6802EBC302D2E9002300F0A8
:10194000A7FD00F07BFEDFF8E0150860DFF8D005AA
:10195000006800F077FD834ADFF8C8351B6802EBAA
:10196000C302D2E9002300F093FD00F067FEDFF828
:10197000C4150860DFF8A805006800F063FD764A2A
:10198000DFF8A0351B6802EBC30252E9022300F026
:101990007FFD04000D00DFF89005006800F052FDA7
:1019A00002000B002000290001F0FAFB00F046FEC7
:1019B000DFF888150860DFF86805006800F042FD70
:1019C000684ADFF860351B6802EBC30252E9022364
:1019D00000F05EFD04000D00DFF85805006800F01F
:1019E00031FD02000B002000290001F0D9FB00F0BE
:1019F00025FEDFF84C150860DFF828050068401C5C
:101A0000DFF820150860DFF83405006800F01AFDE3
:101A100004000D00DFF82805006800F013FD060043
:101A20000F002000290022002B0000F031FD0400EF
:101A30000D003000390032003B0000F029FD22008B
:101A40002B0001F0EFFA01F01DFC04000D00DFF89F
:101A5000DC04006800F0F6FC06000F00DFF8E0048C
:101A6000006801F088FC00F0EDFC02000B00200093
:101A7000290001F085FC32003B0000F009FD002246
:101A8000DFF8C03401F0CEFA01F09EFDDFF8A814B3
:101A90000860DFF8A804006800F0D4FC04000D0022
:101AA000DFF89C04006800F0CDFC06000F00200069
:101AB000290022002B0000F0EBFC04000D00300098
:101AC000390032003B0000F0E3FC22002B0001F063
:101AD000A9FA01F0D7FB04000D00DFF850040068FC
:101AE00000F0B0FC06000F00DFF85004006801F0C1
:101AF00042FC00F0A7FC02000B002000290001F0CE
:101B00003FFC32003B0000F0C3FC0022DFF834341D
:101B100001F088FA01F058FDDFF81414086001F0B4
:101B2000CFF901F0F6F901F0B7F901F0DEF90AE0BA
:101B3000DFF8F0030068401CDFF8E813086001F0EC
:101B4000ABF901F0D2F9F1BD0000F03F50E7002001
:101B5000D83701200000084000370120D437012089
:101B600090060120583701209A9999999999B93F7F
:101B7000295C8FC2F528F03F80B5DFF8A803006824
:101B80000B282BD1DFF85C08D0E91601DFF85828C4
:101B9000DFF858381B6802EBC30242E90201DFF8A4
:101BA0005008D0E91601DFF84C28DFF840381B68F0
:101BB00002EBC30242E902010120DFF83C18086091
:101BC0000020DFF8601308600220DFF8301808708A
:101BD0000220DFF82C18087008209FE1DFF80408C5
:101BE000D049096800EBC10050E90201DFF8F42791
:101BF000CC4B1B6802EBC302D2E9002301F0F6FCD8
:101C000018D2DFF8EC07C749096800EBC10050E9BA
:101C10000223DFF8DC07C349096800EBC100D0E903
:101C2000000101F0FDFC05D10020DFF8D01708709D
:101C3000002073E1DFF8AC07BA49096800EBC10086
:101C4000D0E90001DFF89C27B64B1B6802EBC3020A
:101C500052E9022301F0CAFC18D2DFF89407B14917
:101C6000096800EBC10050E90223DFF88407AD49A1
:101C7000096800EBC100D0E9000101F0D1FC05D1F9
:101C80000120DFF878170870012047E1DFF85407DA
:101C9000A449096800EBC10050E90223DFF84407BA
:101CA000A049096800EBC100D0E9000101F0B8FCCF
:101CB00018D1DFF83C079B49096800EBC10050E9E7
:101CC0000201DFF82C27974B1B6802EBC302D2E915
:101CD000002301F08BFC05D20020DFF824170870E8
:101CE00002201BE1DFF8FC068E49096800EBC10009
:101CF00050E90223DFF8EC068A49096800EBC100CD
:101D0000D0E9000101F08CFC18D1DFF8E406854928
:101D1000096800EBC100D0E90001DFF8D426814B4F
:101D20001B6802EBC30252E9022301F05FFC05D2FB
:101D30000120DFF8CC1608700320EFE0DFF8A406DE
:101D40007849096800EBC10050E90201DFF89426E8
:101D5000744B1B6802EBC302D2E9002301F046FC7E
:101D60001CD2DFF88C066F49096800EBC10050E90E
:101D70000201DFF87C266B4B1B6802EBC302D2E941
:101D8000002301F033FC09D20020DFF87016087040
:101D90000020DFF86C1608700420BFE0DFF844066E
:101DA0006049096800EBC10050E90201DFF8342600
:101DB0005C4B1B6802EBC302D2E9002301F016FC66
:101DC0001CD2DFF82C065749096800EBC100D0E9A6
:101DD0000001DFF81C26534B1B6802EBC30252E9DB
:101DE000022301F003FC09D20020DFF8101608706E
:101DF0000120DFF80C16087005208FE0DFF8E405FD
:101E00004849096800EBC100D0E90001DFF8D4259A
:101E1000444B1B6802EBC30252E9022301F0E6FBCC
:101E20001CD2DFF8CC053F49096800EBC10050E93E
:101E30000201DFF8BC253B4B1B6802EBC302D2E971
:101E4000002301F0D3FB09D20120DFF8B0150870A0
:101E50000020DFF8AC15087006205FE0DFF884058D
:101E60003049096800EBC100D0E90001DFF87425B2
:101E70002C4B1B6802EBC30252E9022301F0B6FBB4
:101E80001CD2DFF86C052749096800EBC100D0E9D6
:101E90000001DFF85C25234B1B6802EBC30252E90B
:101EA000022301F0A3FB09D20120DFF850150870CE
:101EB0000120DFF84C15087007202FE0DFF824051B
:101EC0001849096800EBC10050E90223DFF8140546
:101ED0001449096800EBC100D0E9000101F0A0FB42
:101EE0001CD1DFF80C050F49096800EBC10050E96F
:101EF0000223DFF8FC040B49096800EBC100D0E9BC
:101F0000000101F08DFB09D10220DFF8F014087008
:101F10000220DFF8EC1408700820FFE702BD000083
:101F20000400002018380120E037012000000020C4
:101F30002C040140E83701202C000140C03701206B
:101F4000C43701200000F0BF70B50026D7E1DFF8EC
:101F5000B40450F82600422840F0D081DFF8A804ED
:101F60000068401CDFF8A0140860DFF8980400EB5C
:101F7000860080680A22DFF88C1401EB8601C968AC
:101F800002FB0010B0F5047000F05CFA04000D00D4
:101F9000DFF8700400EB86004069303800F052FA38
:101FA000DFF86824DFF8683400F072FA22002B00B2
:101FB00001F038F8DFF85C24DFF85C341B6802EBD2
:101FC000C302C2E90001DFF850040068401CDFF8DA
:101FD00048140860DFF82C0400EB8600C0690A2270
:101FE000DFF8201401EB8601096A02FB0010B0F54E
:101FF000047000F027FA04000D00DFF8080400EB7D
:102000008600806A303800F01DFADFF80024DFF81F
:10201000003400F03DFA22002B0001F003F8DFF855
:10202000FC23DFF8FC331B6802EBC302C2E90001AA
:10203000DFF8EC030068401CDFF8E4130860DFF809
:10204000C40300EB8600006B0A22DFF8B81301EB33
:102050008601496B02FB0010B0F5047000F0F2F944
:1020600004000D00DFF89C0300EB8600C06B3038E5
:1020700000F0E8F9DFF89423DFF8943300F008FA71
:1020800022002B0000F0CEFFDFF88823DFF8883332
:102090001B6802EBC302C2E90001DFF87C030068A1
:1020A000401CDFF874130860DFF8580300EB86006B
:1020B000406C0A22DFF84C1301EB8601896C02FBAD
:1020C0000010B0F5047000F0BDF904000D00DFF859
:1020D000340300EB8600006D303800F0B3F9DFF810
:1020E0002C23DFF82C3300F0D3F922002B0000F072
:1020F00099FFDFF82823DFF828331B6802EBC302BF
:10210000C2E90001DFF818030068401CDFF8101373
:102110000860DFF8F00200EB8600806D0A22DFF82D
:10212000E41201EB8601C96D02FB0010B0F50470EA
:1021300000F088F904000D00DFF8C80200EB86000B
:10214000406E303800F07EF9DFF8C022DFF8C03290
:1021500000F09EF922002B0000F064FFDFF8B422AB
:10216000DFF8B4321B6802EBC302C2E90001DFF8FA
:10217000A8020068401CDFF8A0120860DFF88402A3
:1021800000EB8600C06E0A22DFF8781201EB8601B0
:10219000096F02FB0010B0F5047000F053F9040061
:1021A0000D00DFF8600200EB8600806F303800F031
:1021B00049F9DFF85822DFF8583200F069F92200B7
:1021C0002B0000F02FFFDFF85422DFF854321B6899
:1021D00002EBC302C2E90001DFF844020068401CC0
:1021E000DFF83C120860DFF81C0200EB8600D0F834
:1021F00080000A22DFF80C1201EB8601D1F884106E
:1022000002FB0010B0F5047000F01CF904000D0092
:10221000DFF8F00100EB8600D0F88C00303800F0D9
:1022200011F9DFF8E821DFF8E83100F031F9220098
:102230002B0000F0F7FEDFF8DC21DFF8DC311B6853
:1022400002EBC302C2E90001DFF8CC010068401CC8
:10225000DFF8C4110860DFF8AC0100EB8600D0F8AD
:1022600094000A22674901EB8601D1F8981002FB1D
:102270000010B0F5047000F0E5F804000D006148AE
:1022800000EB8600D0F8A000303800F0DBF85F4AA1
:102290005F4B00F0FDF822002B0000F0C3FE5F4A08
:1022A0005F4B1B6802EBC302C2E900015C48006897
:1022B000401C5B49086002205A495B4A126841F899
:1022C000220059480068401C5749086016E04D48F4
:1022D00050F8260053287FF43AAE4B480068534923
:1022E000534A126841F8220052485149096840F89F
:1022F00021604F480068401C4D490860761C4E48DC
:10230000006886426DDA3F4850F826004C28DED13E
:102310003D480068401C3C4908603A4800EB860094
:1023200080680A22374901EB8601C96802FB001068
:10233000B0F5047000F086F804000D00314800EBA1
:1023400086004069303800F07DF8304A304B00F0AC
:102350009FF822002B0000F065FE234A374B1B68D4
:1023600002EBC302C2E9000134480068401C334953
:102370000860244800EB8600C0690A22214901EB6D
:102380008601096A02FB0010B0F5047000F05AF8EB
:1023900004000D001B4800EB8600806A303800F016
:1023A00051F81A4A1A4B00F073F822002B0000F083
:1023B00039FE104A224B1B6802EBC302C2E900013E
:1023C0001F480068401C1E49086001201549164A34
:1023D000126841F8220014480068401C1249086045
:1023E0008CE770BD00370120509C0020B0370120E1
:1023F00058370120D0C100201038012008000020EB
:10240000090000200C000020F83701209A999999C2
:102410009999B93F50E70020C83701209006012064
:10242000CC370120D0250120D037012038360120BB
:10243000BC37012070350120F4370120B43701206A
:10244000B837012010F0004160B148BF4042B0FAF7
:1024500080F29040D21CC2F5846241EA025202EB43
:10246000D021400570470EE00268436802440830FE
:102470005FEAC37C44BF4B445B1E52F804CB43F875
:1024800004CB091FF9D150F8041B0029ECD1704787
:1024900030B540F2FF7C1CEA11541DBF1CEA1355F5
:1024A000644565453FE0641981EA030C6FF35F53AF
:1024B0000CF0004C43F48013C90241F0004141EAA2
:1024C000505EC5021100A5FB020200284FF000007B
:1024D000EEFB01204FF00001E3FB052118BF42F0A5
:1024E0000102401800214941E3FB0E01A4F580647C
:1024F0000D0302D292184041494154F1010470DDAC
:10250000450872F1004250F1000051EB0451A1F571
:10251000801102D441EA0C0130BD40F2FF7E4CEA4A
:102520000E51002030BD0CEA1355644518BF6545B7
:1025300081EA030C0CF0004C41D050EA410E1CBF64
:1025400052EA430E02E06146002030BD24422C4492
:102550001BD15FEA050EF6D0090302BF0146002039
:10256000AEF1140EB1FA81F5AEEB050401FA05FEE9
:102570000C35C5F1200100FA05F5C8404EEA000E01
:102580006FF35F5343F480139CE733F00043B3FAD7
:1025900083F504BFB2FA82FE75440B3D641BB5F1AE
:1025A000200E2FBF02FA0EF3AB40C5F1200E22FA27
:1025B0000EFE38BF43EA0E03AA40641C7CE750EAD3
:1025C000410E14BF52EA430E6FF000014FF40015A4
:1025D00015EB430F8EBF194615EB410F9DE7B4D89D
:1025E00030BDD4F10104B4F120050FDAC4F12005A7
:1025F000520828BF42F0010210FA05FE01FA05F563
:102600007244E2BFE0402843E1400FE0352C9ADC01
:10261000C5F1200452EA400220FA05F218BF42F048
:10262000010231FA05F0A1400A43002172F1004293
:1026300050F1000051EB0C0130BD0000C1F30A5312
:1026400040F21E42D31A0CDDCA0283F3070342EAAA
:10265000505242F00042DA4002EBE17282EAE1704D
:1026600070476FEAE17203F2E13008B182F0004096
:1026700070470000DFF8AC08006850F02000DFF879
:10268000A4180860DFF8A0080168DFF8A00801437B
:10269000DFF894080160DFF89808006830F47F40A4
:1026A000DFF88C180860DFF88C080168DFF87C0818
:1026B0000143DFF880080160DFF86C08006840F42F
:1026C000AA4050F05500DFF860180860DFF8600895
:1026D0000068000A0002DFF858180860DFF85408A4
:1026E000006840F4AA4050F05500DFF84818086030
:1026F000DFF83008006850F04000DFF82818086064
:10270000DFF83408006880B2DFF82C180860DFF8C2
:102710002C08006880B2DFF824180860DFF804088D
:10272000006850F00800DFF8FC170860DFF81008B8
:10273000006880B2DFF808180860DFF80808006851
:1027400080B2DFF8001808607047DFF8D80700682B
:1027500050F01000DFF8CC170860DFF8EC070068D5
:1027600050F00100DFF8E0170860DFF8E0070068CC
:1027700050F40020DFF8D4170860DFF8D4070068B1
:1027800050F44020DFF8C8170860DFF8C807006879
:1027900030F40070DFF8BC170860DFF8BC07006891
:1027A00050F48020DFF8B0170860DFF8B007006849
:1027B00050F01000DFF8A4170860DFF8A4070188C4
:1027C0004FF6EF700140DFF898070180DFF89007BF
:1027D00001884FF6FD700140DFF884070180DFF8C3
:1027E000800701884FF6FB700140DFF87407018015
:1027F000DFF86C0701884FF6F7700140DFF86007DB
:102800000180DFF85C0701884FF67F700140DFF838
:1028100050070180DFF8480701884FF6FF4001406C
:10282000DFF83C070180DFF8380701884FF69F701A
:102830000140DFF82C070180A720DFF82817088067
:102840000920DFF824170860DFF82007008850F01F
:102850000100DFF818170880DFF81407008850F02F
:102860000200DFF80C170880DFF8080701884FF630
:10287000FC700140DFF8FC060180DFF8F8060188F3
:102880004FF6FB700140DFF8EC060180DFF8E4064C
:1028900001884FF6F7700140DFF8D8060180DFF8B5
:1028A000D406008850F03000DFF8C8160880DFF842
:1028B000C806008850F00100DFF8BC160880DFF879
:1028C000B80601884FF6FD700140DFF8AC060180C4
:1028D0000120DFF8A8160860DFF8900601884FF69F
:1028E000FE700140DFF884060180DFF88006008872
:1028F00050F00200DFF874160880DFF884060068E4
:1029000050F00060DFF878160860DFF8780600887D
:1029100050F40040DFF86C160880DFF844060188A8
:102920004FF6FE700140DFF8380601807047DFF88F
:10293000F405006850F00400DFF8E8150860DFF8DF
:102940000806006850F00200DFF8FC150860DFF8A8
:102950003806006850F40050DFF82C160860DFF8E5
:102960002C06006850F44050DFF820160860DFF8AD
:102970002006006830F04000DFF814160860DFF829
:102980001406006850F48050DFF808160860DFF87D
:102990000806006850F04070DFF8FC150860DFF8AA
:1029A000FC0501884FF6EF700140DFF8F00501806B
:1029B000DFF8E80501884FF6FD700140DFF8DC051F
:1029C0000180DFF8D80501884FF6FB700140DFF881
:1029D000CC050180DFF8C40501884FF6F77001408F
:1029E000DFF8B8050180DFF8B40501884FF67F7085
:1029F0000140DFF8A8050180DFF8A00501884FF647
:102A0000FF400140DFF894050180DFF89005018860
:102A10004FF69F700140DFF884050180A720DFF8A2
:102A2000801508800920DFF87C150860DFF878053C
:102A300001884FF6FE700140DFF86C050180DFF879
:102A40006805008850F00200DFF85C150880DFF8A8
:102A50005C05008850F00200DFF850150880DFF8B0
:102A6000500501884FF6FC700140DFF844050180F5
:102A7000DFF83C0501884FF6FB700140DFF83005B8
:102A80000180DFF82C0501884FF6F7700140DFF870
:102A900020050180DFF81805008850F03000DFF8CD
:102AA00010150880DFF80C05008850F00100DFF8F1
:102AB00004150880DFF8FC0401884FF6FD70014022
:102AC000DFF8F00401800120DFF8EC140860DFF883
:102AD000D80401884FF6FE700140DFF8CC04018075
:102AE000DFF8C404008850F00200DFF8BC1408804E
:102AF000DFF8C804006850F48040DFF8C0140860B4
:102B0000DFF8BC04008850F40040DFF8B4140880FB
:102B1000DFF8880401884FF6FE700140DFF87C047E
:102B200001807047DFF8FC03006850F00200DFF816
:102B3000F4130860DFF88C04006850F00400DFF83C
:102B400084140860DFF88004006850F40030DFF877
:102B500078140860DFF87404006850F44030DFF83F
:102B60006C140860DFF86804006830F48070DFF8E7
:102B700060140860DFF85C04006850F48030DFF80F
:102B800054140860DFF85004006850F00200DFF8C9
:102B90004814086040F24730DFF840140880632092
:102BA000DFF83C140860DFF83C0401884FF6EF7052
:102BB0000140DFF830040180DFF8280401884FF677
:102BC000FD700140DFF81C040180DFF81804018863
:102BD0004FF6FB700140DFF80C040180DFF80404BD
:102BE00001884FF6F7700140DFF8F8030180DFF845
:102BF000F403008850F08000DFF8E8130880DFF865
:102C0000E40301884FF6FF400140DFF8D80301805C
:102C1000DFF8D00301884FF69F700140DFF8C4034E
:102C20000180DFF8C403008850F48070DFF8B81327
:102C30000880DFF8B40301884FF6FF500140DFF849
:102C4000A80301803220DFF8A4130860DFF8A00396
:102C500001884FF6FC700140DFF894030180DFF833
:102C60009003008850F00800DFF884130880DFF834
:102C70008003008850F06000DFF874130880DFF8EC
:102C80007003008850F08000DFF864130880DFF8DC
:102C90005403008850F00100DFF8481308807047A3
:102CA000A048006850F008009E490860A6480068E7
:102CB00050F48040A4490860A148006880B2A0494F
:102CC0000860DFF83003006850F03300DFF82413A9
:102CD0000860DFF82403006850F44070DFF8181330
:102CE0000860DFF81803006850F44070C3490860BA
:102CF000A348006850F40000A1490860704780B5FF
:102D00008848006850F0010086490860BC480068A7
:102D100050F40020BA490860BA48006850F44020D6
:102D2000B8490860B848006850F07000B6490860BB
:102D3000B348006850F40010B1490860B148006819
:102D400050F44010AF490860AF48006850F4E060AC
:102D5000AD4908607C48006850F010007A4908606E
:102D60004FF4165000F037F8A84801884EF6FF706F
:102D70000140A6480180A54801884FF6FF30014078
:102D8000A2480180A148008850F004009F490880B3
:102D90009E48008850F008009C4908809C480188A3
:102DA0004CF6FF7001409A48018000209949088044
:102DB0009648008850F02000944908807F480068B9
:102DC00050F020007D4908609048008850F4005081
:102DD0008E49088001BD00218F4A002100218B49C6
:102DE0000988090405D519214A434000B2FBF0F2D5
:102DF00004E019214A438000B2FBF0F26420B2FBE8
:102E0000F0F109010B001B097FF0630000FB0322B6
:102E10007E480088000408D5D00032306422B0FB20
:102E2000F2F010F00700014307E010013230642295
:102E3000B0FBF2F010F00F000143784801807047BA
:102E400038B50400002504E04FF47A7000F008F86B
:102E50006D1C2800210080B289B28842F4D331BDB4
:102E600081B080B211214843009002E00098401EDA
:102E7000009000980028F9D101B0704768480068B8
:102E800050F4804066490860444801884FF6FE705F
:102E900001404248018070476148006830F480403A
:102EA0005F4908603D48008850F001003B490880B8
:102EB00070475B48006850F400405949086070470B
:102EC0005748006830F4004055490860704754483E
:102ED000006850F4805052490860214801884FF63C
:102EE000FE7001401E48018070474D48006830F474
:102EF00080504B4908601A48008850F0010018497A
:102F0000088070474648006830F400504449086023
:102F100070474348006850F40050414908607047CA
:102F200000000000303802400014024000005555F7
:102F30000414024008140240001802400C18024019
:102F4000000C02400C0C02404438024000100240C9
:102F500008100240041002400C10024024100240ED
:102F600000000140280001402C0001400C000140FD
:102F700014000140180001402000014034000140CD
:102F800000E100E04400014000080240080802405F
:102F9000040802400C0802402008024000040140DE
:102FA000280401402C0401400C0401401404014099
:102FB00018040140200401403404014004E100E011
:102FC000440401404038024000040240080402402A
:102FD000040402400C04024024040240280800407B
:102FE0002C08004000080040200800403C08004039
:102FF0001C080040103801400C3C0140003C0140DE
:103000000000024008000240240002400C10014071
:10301000101001401410014000BD010508100140CE
:103020001414024070B491EA030F4FF0004540F1D0
:10303000BF806B40841A71EB030604D26E40001B04
:10304000B141121973414FF4001C1CEB410F34BF06
:103050007CEB430683E00C0DA4EB1356362E00F3F5
:103060007C80012E45EAC32341DC43EA525312BF60
:10307000D20292025B08240545EAC12141EA50517F
:10308000D2EBC020994125D407D1B0FA80F610FACE
:1030900006F162D00020203608E0B1FA81F6B14096
:1030A000C6F1200220FA02F21143B0404FEAF47454
:1030B000B4EB465434F001064FEA74040AD8D6F54E
:1030C0000016760D04F00044F04061FA06F250401C
:1030D000F1404840C00A40EA415021F0004128BF79
:1030E0005FEA500550F1000044EBD12135E0DB0AE6
:1030F00045EAC121C90AB6F120050EDD42EA0242C5
:10310000120CC5F1200603FA06F6EB4042EA06056A
:103110006D42984161F100010DE062FA06F5F2405E
:10312000554063FA06FC82EA0C02F3405A406D42B5
:10313000904161EB030111F4801F05D1641E62050B
:1031400002D06D004041494121F48011430875F1DE
:10315000004350F1000041EB045170BC70471CEB80
:10316000410F15D223F0004352EA43060BD04FEA39
:103170004C0CBCEB410F04D80C0D661E342EB7DD91
:10318000EBE7801A994150EA410608BF0021E4E7C5
:1031900008BF1CEB430F28BF6FF00001DDE7000004
:1031A00070B491EA030F4FF000457FF543AF6B40D9
:1031B000841A71EB030603D2001BB141121973414B
:1031C0004FF4001C1CEB410F34BF7CEB430442E086
:1031D0000C0DA4EB1356352E4FDC45EAC323DB0A56
:1031E00045EAC121C912B6F120050DDD63FA05F6E5
:1031F000EB4086EA0305124218BF45F00105C018EE
:1032000051F100010CD213E062FA06F5F24055408C
:10321000F3415A40B340F3405A408018594107D314
:1032200049085FEA30005FEA350528BF45F001052F
:1032300001F58011420875F1004250F1000041EBA8
:1032400004514E0016F5001F70BC38BF70470020B7
:10325000090D090570471CEB410F10D252EA4306D5
:103260000BD0BCEB410F05D80C0DAB43661E342EC2
:10327000B6DD02E0AB438018594170BC704770BCAA
:103280007047000040F2FF7C0B0D4DD0634566D2C5
:1032900030B421EA035141F4801103F2FD3C5FEAAE
:1032A0005C0C01D300184941890041EA907180000B
:1032B0004FF440140023E202D50AB1F5100107D4FF
:1032C0006D081DD2091B641900184941491BF7D527
:1032D0006D080AD20919641B00184941491BEFD532
:1032E0006D08F7D301E0520817D0C01861419B1A4E
:1032F000AC4100184941801AA941F4D452080AD0BF
:10330000C01AA1419B186C4100184941801AA9417B
:10331000E9D45208F4D15B1C6C4161084FEA3300D8
:1033200001EB0C5130BC704750EA0103FBD030B4C4
:10333000B1FA81F311B9B0FA80F41B190B3BB3F168
:1033400020042FBF00FA04F19940C3F1200420FAB1
:1033500004F438BF21439840D3F101039DE763454E
:1033600014BF50EA410CDEE711F5801FDBD8D943CA
:10337000AFF300807047002848BF4042704700000C
:10338000F0B540F2FF7581EA030C0CF0004C15EA31
:1033900011541DBF15EA1357AC42AF42E5E0BC41E2
:1033A000C1F31301C3F31303801A994143F480134B
:1033B00004D2641E0018494180185941C90241EAEB
:1033C0005051B1FBF3F603FB1611A2FB0675D7EBC8
:1033D000C020A94102D2761E80185941C90241EA93
:1033E0005051B1FBF3FE03FB1E11A2FB0E75D7EB90
:1033F000C020A94103D2AEF1010E801859418902C3
:1034000041EA9051760546EA8E2EB1FBF3F603FBB6
:103410001611A2FB0675D7EB8020A94102D2761EB9
:1034200080185941C90241EA50514EEA060EB1FBDB
:10343000F3F603FB1611A2FB0675D7EBC020A941DA
:1034400002D2761E80185941C90241EA5051B1FB9F
:10345000F3F703FB1711A2FB0735D3EBC020A941FB
:1034600067F100070CBF004247F0010766F3D5275C
:103470004FEA1E31B80814F5806412DDBD0775F1FE
:10348000004250EB0E5051EB045111F5801F5CBF10
:1034900041EA0C01F0BD4CF07F6141F0E0410020B9
:1034A000F0BDBD076D0840EA0E5041F48011D4F123
:1034B0000104B4F120060ADAC4F120060200E0405B
:1034C00001FA06F3E1401843B24015430EE0342CF4
:1034D00013DCC6F1200445EA40056D0820FA06F227
:1034E000154321FA06F0A1400D43002175F1004279
:1034F00050F1000051EB0C01F0BD00205FEA0C011F
:10350000F0BDCFB992185B41B3FA83F704BFB2FAAA
:1035100082F6BF190B3FB7F120062FBF02FA06F360
:10352000BB40C7F1200622FA06F638BF3343BA4043
:103530001CB1E419641E33E77F4231F00041B1FA57
:1035400081F404BFB0FA80F6A4190B3CB4F1200654
:103550002FBF00FA06F1A140C4F1200620FA06F6BA
:1035600038BF3143A0403C1B1AE7AC421ABF05EA02
:103570001357AF4212E050EA41061CBF52EA43061D
:10358000BFE750EA4107304661461CBF41EA05519A
:10359000F0BD52EA430C08BFC143F0BD00204FF418
:1035A000001616EB410F98BF16EB430F08BF16EB42
:1035B000410F24BFC14305E016EB430F0CBF61462A
:1035C0004CEA0551F0BD0000400D40F21E4C40EAAF
:1035D000C120BCEB115C40F0004003D48CF3070128
:1035E000C84070476FEAE1707047000041EA030C81
:1035F00050EA4C0C52EA0C0C4FF4001C09D307D0D3
:103600001CEB410F9CBF1CEB430F8B4208BF824257
:1036100070471CEB430FFBD8994208BF904270479C
:10362000904205D1994204D041EA030C50EA4C0C77
:1036300070474FF4001C1CEB410F38BF89427047A4
:1036400080B54FF47A70FFF7FBFBFFF729FBFFF71C
:1036500011F8FFF77AF8FFF76AF9FFF763FAFFF757
:103660004EFBDFF84803006830F01000DFF83C1331
:103670000860FFF71EFCFFF70FFCFFF74AFCFFF79F
:1036800034FC3DE0DFF82803DFF82813096850F820
:103690002100022875D1DFF820030068002805D139
:1036A000FDF7F6FB0120DFF810130860FEF764FA5F
:1036B000FDF756FDDFF804030068012861D1DFF84B
:1036C000F4020068401CDFF8EC1208600020DFF80C
:1036D000EC1208600020DFF8E01208600020DFF83C
:1036E000E01208604DE0DFF8DC020078012807D125
:1036F000DFF8B802006830F01000DFF8B0120860A0
:1037000000F009F9DFF8C002007801280BD1FEF7BC
:103710001BFC4FF4FA70FFF793FB0120A9490870D6
:103720000020A9490870A748007801282CD1A14899
:103730000068A6490968884226DAA548A5490968AB
:1037400050F821009B49096888420AD1A1480068C5
:10375000401CA04908609548006890F0100093490B
:10376000086093489349096850F82100012889D1DD
:1037700090480068401C8F490860FDF7FEF9FCF78F
:1037800003FD00208F4908708A4800688F49096846
:103790008842B5D1A7E780B58F480088800737D524
:1037A0008D4801884FF6FD7001408B4801808B48A1
:1037B000007800280FD18A480068401C88490860BA
:1037C0008748006887490968884204DBFFF77FFB68
:1037D00001207C4908708148007801280FD1804879
:1037E0000068401E7E4908607E4800687C49096880
:1037F000884204DBFFF76BFB0120724908707748B1
:103800000078022804D1FFF762FB01206D4908709F
:1038100001BD80B574480088800737D5724801889B
:103820004FF6FD7001407048018070480078002814
:103830000FD16F480068401C6D4908606C480068F3
:103840006C490968884204DBFFF718FB01205D49D9
:1038500008706648007801280FD165480068401E4E
:10386000634908606348006861490968884204DB6D
:10387000FFF704FB0120534908705C4800780228D8
:1038800004D1FFF7FBFA01204E49087001BD5A48E8
:103890000068C00505D55848006850F48070564946
:1038A000086055480068800505D55348006850F405
:1038B000007051490860704750480088800629D53B
:1038C0004F4800884F4908704E4800780A2821D098
:1038D0004C4800780D281DD04A4800786E2819D031
:1038E000484800784849494A126841F82200464849
:1038F0004649096850F821005A2806D1012032496A
:103900000870424800684249086040480068401C0E
:103910003E490860704780B53E480068C0050FD436
:103920003D48006800280BD13220FFF789FA39485A
:103930000068C00504D4FFF7A1FA012036490860E9
:103940003448006880050FD43220FFF779FA3148F7
:103950000068800508D431480068002804D1FFF7CA
:10396000B6FA01202D4908602B48006801281BD1B8
:103970002A480068012817D1FFF7A2FAFFF78CFA4E
:1039800041F28830FFF75CFAFFF778FA022022490B
:103990000860022021490860154800682049086035
:1039A0000F4800681F49086001BD00001414024060
:1039B000D0250120F03701201438012010380120D3
:1039C000183801201D3801201E380120F837012049
:1039D00038360120FC37012010000140090000208A
:1039E000E4370120E83701201004014008000020DE
:1039F000DC370120E0370120143C01400010014079
:103A0000041001401C3801200C000020EC3701207C
:103A1000F4370120100C0240003801200438012046
:103A2000083801200C38012080B54548006850F066
:103A3000010043490860002042490860404801688D
:103A4000414801403E4801604048414908603C48C7
:103A5000006830F480203A49086000203D49086041
:103A600000F005F85FF000603B49086001BD82B0DE
:103A700000200190002000903148006850F4803010
:103A80002F4908602E48006810F40030009001981B
:103A9000401C01900098002803D10198B0F5A04F78
:103AA000F0D127480068800302D50120009001E092
:103AB00000200090009801283ED12848006850F06E
:103AC0008050264908602648006850F44040244948
:103AD00008601C4800681B4908601A48006850F4D8
:103AE0000040184908601748006850F4A050154974
:103AF00008601C48164908601148006850F0807042
:103B00000F4908600E4800688001FBD540F205703F
:103B1000154908600B480068800880000949086062
:103B20000848006850F0020006490860054800682F
:103B300010F00C000828F9D102B070470000000016
:103B40000038024008380240FFFFF6FE1030002423
:103B5000043802400C38024008ED00E040380240D2
:103B60000070004008544007003C024030B400257B
:103B700012E050F8042BD30744BF4A44521E091FD9
:103B8000042942F8045BFAD213468C0744BF15801F
:103B90009B1CC90748BF1D7050F8041B0029E8D1C1
:103BA00030BC704710B5074979441831064C7C4445
:103BB000163404E00A68081D114488470146A142F2
:103BC000F8D110BD0800000028000000A1FFFFFF91
:103BD000143801000C000020000000008BE8FFFFFB
:103BE0000C00000080000000000000200000000029
:103BF00000F00DF8002801D0FFF7D4FFAFF30080EC
:103C00000020AFF30080FFF71BFD00F002F8012059
:103C1000704700F001B800000746384600F002F88F
:103C2000FBE7000080B5AFF30080024A11001820C6
:103C3000ABBEFBE7260002000548014603B4684618
:103C400080F30988AFF30080AFF30080FFF7D0FF67
:103C5000A5EDF5FE0148804701480047293A0008D4
:103C6000393C000864000000DC050000030300008C
:103C7000FFF7FEBFFFF7FEBFFFF7FEBFFFF7FEBF78
:103C8000FFF7FEBFFFF7FEBFFFF7FEBFFFF7FEBF68
:103C9000FFF7FEBFFFF7FEBFFFF7FEBFFFF7FEBF58
:103CA000FFF7FEBFFFF7FEBFFFF7FEBFFFF7FEBF48
:103CB000FFF7FEBFFFF7FEBFFFF7FEBFFFF7FEBF38
:103CC000FFF7FEBFFFF7FEBFFFF7FEBFFFF7FEBF28
:103CD000FFF7FEBFFFF7FEBFFFF7FEBFFFF7FEBF18
:103CE000FFF7FEBFFFF7FEBFFFF7FEBFFFF7FEBF08
:103CF000FFF7FEBFFFF7FEBFFFF7FEBFFFF7FEBFF8
:103D0000FFF7FEBFFFF7FEBFFFF7FEBFFFF7FEBFE7
:103D1000FFF7FEBFFFF7FEBFFFF7FEBFFFF7FEBFD7
:103D2000FFF7FEBFFFF7FEBFFFF7FEBFFFF7FEBFC7
:103D3000FFF7FEBFFFF7FEBFFFF7FEBFFFF7FEBFB7
:103D4000FFF7FEBFFFF7FEBFFFF7FEBFFFF7FEBFA7
:103D5000FFF7FEBFFFF7FEBFFFF7FEBFFFF7FEBF97
:103D6000FFF7FEBFFFF7FEBFFFF7FEBFFFF7FEBF87
:103D7000FFF7FEBFFFF7FEBFFFF7FEBFFFF7FEBF77
:103D8000FFF7FEBFFFF7FEBFFFF7FEBFFFF7FEBF67
:103D9000FFF7FEBFFFF7FEBFFFF7FEBFFFF7FEBF57
:103DA000FFF7FEBFFFF7FEBFFFF7FEBFFFF7FEBF47
:103DB000FFF7FEBFFFF7FEBFFFF7FEBFFFF7FEBF37
:0C3DC000FFF7FEBFFFF7FEBFFFF7FEBFDE
:0400000508003C397A
:00000001FF
