:020000040800F2
:10000000608C0020F12700080D2800081128000846
:1000100015280008192800081D2800080000000005
:10002000000000000000000000000000212800087F
:100030002528000800000000292800082D280008B5
:100040003128000835280008392800083D28000814
:100050004128000845280008492800084D280008C4
:100060005128000855280008592800085D28000874
:100070006128000865280008692800086D28000824
:100080007128000875280008792800087D280008D4
:100090008128000885280008892800083B240008DA
:1000A0008D2800089128000895280008432300089F
:1000B000992800089D280008A1280008A528000804
:1000C000A9280008AD280008B1280008B5280008B4
:1000D000B928000865240008BD280008C1280008C8
:1000E000C5280008C9280008CD280008D128000824
:1000F000D5280008D9280008BF230008DD280008FB
:10010000E1280008E5280008E9280008ED28000893
:10011000F1280008F5280008F9280008FD28000843
:100120000129000805290008092900080D290008EF
:100130001129000815290008192900081D2900089F
:100140002129000825290008292900082D2900084F
:100150003129000835290008392900083D290008FF
:100160004129000845290008492900084D290008AF
:100170005129000855290008592900085D2900085F
:100180006129000865290008F8B500F0F6FC002890
:1001900013D0022867D03BD3042800F0BA80C0F007
:1001A0008D80062800F0C982C0F0BD81082800F0CB
:1001B000D884C0F0CC8300F0DFBCDFF8EC0C006822
:1001C00000F052FFDFF8E42CDFF8403E1B6802EB42
:1001D000C302D2E9002300F06DFF01F041F8DFF81F
:1001E000D01C0860DFF8240E0068401CDFF81C1EDD
:1001F0000860DFF8C00C0068401EDFF8BC1C086017
:1002000001F069FC01F05AFC01F073FC00F0B4BC91
:10021000DFF8940C006800F027FFDFF8902CDFF87F
:10022000EC3D1B6802EBC302D2E9002300F042FF61
:1002300001F016F8DFF8781C0860DFF8D00D0068D0
:10024000401CDFF8C81D0860DFF8680C0068401E1D
:10025000DFF8641C086001F045FC01F02FFC01F0A0
:1002600048FC00F089BCDFF8400C006800F0FCFEA0
:10027000DFF89C2DDFF8943D1B6802EBC302D2E946
:10028000002300F017FF00F0EBFFDFF8301C0860E0
:10029000DFF8780D0068401CDFF8701D0860DFF89B
:1002A000140C0068401EDFF8181C086001F03CFCCC
:1002B00001F02DFC01F0F4FB00F05EBCDFF8E80B70
:1002C000006800F0D1FEDFF8482DDFF8403D1B68E4
:1002D00002EBC302D2E9002300F0ECFE00F0C0FF05
:1002E000DFF8D81B0860DFF8240D0068401CDFF839
:1002F0001C1D0860DFF8BC0B0068401EDFF8C01B47
:10030000086001F018FC01F002FC01F0C9FB00F0EC
:1003100033BCDFF8940B006800F0A6FEDFF88C2BEE
:10032000DFF8E83C1B6802EBC302D2E9002300F0CF
:10033000C1FE00F095FFDFF8781B0860DFF8680B5E
:10034000006800F091FEDFF8C82CDFF8C03C1B68A5
:1003500002EBC302D2E9002300F0ACFE00F080FF04
:10036000DFF8581B0860DFF8400B006800F07CFEE7
:10037000DFF8382BDFF8943C1B6802EBC30252E92C
:10038000022300F097FE04000D00DFF8240B006844
:1003900000F06AFE02000B002000290001F012FDAF
:1003A00000F05EFFDFF86C1C0860DFF8FC0A0068F4
:1003B00000F05AFEDFF8582CDFF8503C1B6802EBC7
:1003C000C30252E9022300F075FE04000D00DFF8BD
:1003D000EC0A006800F048FE02000B002000290033
:1003E00001F0F0FC00F03CFFDFF82C1C0860DFF8A7
:1003F0001C0C0068401CDFF8141C0860DFF8140CAB
:10040000006800F031FE04000D00DFF80C0C0068FD
:1004100000F02AFE06000F002000290022002B0019
:1004200000F048FE04000D003000390032003B00AF
:1004300000F040FE22002B0001F006FC01F034FD2C
:1004400004000D00DFF86C0A006800F00DFE0600E5
:100450000F00DFF8C40B006801F09FFD00F004FE00
:1004600002000B002000290001F09CFD32003B003F
:1004700000F020FE0022DFF8A43B01F0E5FB01F0D4
:10048000B5FEDFF83C1A0860DFF8880B006800F062
:10049000EBFD04000D00DFF8800B006800F0E4FDC8
:1004A00006000F002000290022002B0000F002FEB1
:1004B00004000D003000390032003B0000F0FAFD6E
:1004C00022002B0001F0C0FB01F0EEFC04000D0047
:1004D000DFF8E009006800F0C7FD06000F00DFF854
:1004E000340B006801F059FD00F0BEFD02000B0066
:1004F0002000290001F056FD32003B0000F0DAFD3B
:100500000022DFF8183B01F09FFB01F06FFEDFF8DF
:10051000A819086001F0DFFA01F006FB01F0CEFA3D
:1005200001F0F5FA28E3DFF88009006800F09CFD8F
:10053000DFF87829DFF8D43A1B6802EBC302D2E96E
:10054000002300F0B7FD00F08BFEDFF864190860AF
:10055000DFF85409006800F087FDDFF8B42ADFF8FF
:10056000AC3A1B6802EBC302D2E9002300F0A2FD03
:1005700000F076FEDFF844190860DFF82C09006807
:1005800000F072FDDFF82429DFF8803A1B6802EBE7
:10059000C30252E9022300F08DFD04000D00DFF8D4
:1005A0001009006800F060FD02000B002000290027
:1005B00001F008FC00F054FEDFF8581A0860DFF87C
:1005C000E808006800F050FDDFF8442ADFF83C3A04
:1005D0001B6802EBC30252E9022300F06BFD04002A
:1005E0000D00DFF8D808006800F03EFD02000B00A7
:1005F0002000290001F0E6FB00F032FEDFF8181AB7
:100600000860DFF8080A0068401CDFF8001A08607C
:10061000DFF8000A006800F027FD04000D00DFF895
:10062000F809006800F020FD06000F0020002900F6
:1006300022002B0000F03EFD04000D0030003900C8
:1006400032003B0000F036FD22002B0001F0FCFAE6
:1006500001F02AFC04000D00DFF85808006800F0E3
:1006600003FD06000F00DFF8B009006801F095FCFB
:1006700000F0FAFC02000B002000290001F092FCBF
:1006800032003B0000F016FD0022DFF8903901F047
:10069000DBFA01F0ABFDDFF828180860DFF8740919
:1006A000006800F0E1FC04000D00DFF86C09006850
:1006B00000F0DAFC06000F002000290022002B00C9
:1006C00000F0F8FC04000D003000390032003B005F
:1006D00000F0F0FC22002B0001F0B6FA01F0E4FB80
:1006E00004000D00DFF8CC07006800F0BDFC060038
:1006F0000F00DFF82009006801F04FFC00F0B4FCA7
:1007000002000B002000290001F04CFC32003B00ED
:1007100000F0D0FC0022DFF8043901F095FA01F076
:1007200065FDDFF89417086001F0D5F901F003FAD0
:1007300001F0C4F901F0EBF91EE2DFF86C07006884
:1007400000F092FCDFF86427DFF8C0381B6802EB8A
:10075000C302D2E9002300F0ADFC00F081FDDFF818
:1007600050170860DFF84007006800F07DFCDFF8F4
:10077000A028DFF898381B6802EBC302D2E90023F7
:1007800000F098FC00F06CFDDFF830170860DFF82F
:100790001807006800F068FCDFF81027DFF86C38F5
:1007A0001B6802EBC30252E9022300F083FC040041
:1007B0000D00DFF8FC06006800F056FC02000B009C
:1007C0002000290001F0FEFA00F04AFDDFF844188D
:1007D0000860DFF8D406006800F046FCDFF8302837
:1007E000DFF828381B6802EBC30252E9022300F04D
:1007F00061FC04000D00DFF8C406006800F034FC62
:1008000002000B002000290001F0DCFA00F028FDB6
:10081000DFF804180860DFF8F4070068401CDFF810
:10082000EC170860DFF8EC07006800F01DFC04001E
:100830000D00DFF8E407006800F016FC06000F006A
:100840002000290022002B0000F034FC04000D00E1
:100850003000390032003B0000F02CFC22002B005D
:1008600001F0F2F901F020FB04000D00DFF844066E
:10087000006800F0F9FB06000F00DFF89C07006835
:1008800001F08BFB00F0F0FB02000B0020002900C0
:1008900001F088FB32003B0000F00CFC0022DFF886
:1008A0007C3701F0D1F901F0A1FCDFF814160860E3
:1008B000DFF86007006800F0D7FB04000D00DFF8E8
:1008C0005807006800F0D0FB06000F002000290048
:1008D00022002B0000F0EEFB04000D003000390078
:1008E00032003B0000F0E6FB22002B0001F0ACF9E7
:1008F00001F0DAFA04000D00DFF8B805006800F036
:10090000B3FB06000F00DFF80C07006801F045FBA1
:1009100000F0AAFB02000B002000290001F042FBBE
:1009200032003B0000F0C6FB0022DFF8F03601F099
:100930008BF901F05BFCDFF88015086001F0D2F85C
:1009400001F0F2F801F0BAF801F0E1F814E1DFF893
:100950005805006800F088FBDFF85025DFF8AC365A
:100960001B6802EBC302D2E9002300F0A3FB00F0F6
:1009700077FCDFF83C150860DFF82C05006800F014
:1009800073FBDFF88C26DFF884361B6802EBC302AA
:10099000D2E9002300F08EFB00F062FCDFF81C15AA
:1009A0000860DFF80405006800F05EFBDFF8FC2457
:1009B000DFF858361B6802EBC30252E9022300F04D
:1009C00079FB04000D00DFF8E804006800F04CFB40
:1009D00002000B002000290001F0F4F900F040FCB7
:1009E000DFF830160860DFF8C004006800F03CFB58
:1009F000DFF81C26DFF814361B6802EBC30252E94D
:100A0000022300F057FB04000D00DFF8B00400687B
:100A100000F02AFB02000B002000290001F0D2F9AF
:100A200000F01EFCDFF8F0150860DFF8E005006854
:100A3000401CDFF8D8150860DFF8D805006800F022
:100A400013FB04000D00DFF8D005006800F00CFB7C
:100A500006000F002000290022002B0000F02AFBD6
:100A600004000D003000390032003B0000F022FB92
:100A700022002B0001F0E8F801F016FA04000D0046
:100A8000DFF83004006800F0EFFA06000F00DFF82E
:100A90008805006801F081FA00F0E6FA02000B0018
:100AA0002000290001F07EFA32003B0000F002FB3A
:100AB0000022DFF8683501F0C7F801F097FBDFF896
:100AC00000140860DFF84C05006800F0CDFA04005F
:100AD0000D00DFF84405006800F0C6FA06000F00BC
:100AE0002000290022002B0000F0E4FA04000D0091
:100AF0003000390032003B0000F0DCFA22002B000D
:100B000001F0A2F801F0D0F904000D00DFF8A40311
:100B1000006800F0A9FA06000F00DFF8F80400688A
:100B200001F03BFA00F0A0FA02000B0020002900BF
:100B300001F038FA32003B0000F0BCFA0022DFF886
:100B4000DC3401F081F801F051FBDFF86C13086030
:100B500000F0C8FF00F0EFFF00F0B0FF00F0D7FF9B
:100B60000AE0DFF8A8040068401CDFF8A014086061
:100B700000F0A4FF00F0CBFFF1BD80B5CB48DFF85B
:100B80008C14096800EBC10050E90201C74ADFF884
:100B90007C341B6802EBC302D2E9002301F038FB6E
:100BA0001AD2DFF86C04DFF86414096800EBC100A6
:100BB00050E90223DFF85804DFF85014096800EB0D
:100BC000C100D0E9000101F03DFB05D10020DFF8B4
:100BD00050140870002065E1B448DFF8301409684B
:100BE00000EBC100D0E90001B04ADFF820341B68F7
:100BF00002EBC30252E9022301F00AFB1AD2DFF82A
:100C00001004DFF80814096800EBC10050E9022362
:100C1000DFF8FC03DFF8F413096800EBC100D0E94A
:100C2000000101F00FFB05D10120DFF8F41308707B
:100C3000012037E19D48DFF8D413096800EBC100BB
:100C400050E902239948DFF8C413096800EBC1009A
:100C5000D0E9000101F0F6FA1AD1DFF8B403DFF8A9
:100C6000AC13096800EBC10050E90201DFF8A023D2
:100C7000DFF898331B6802EBC302D2E9002301F0CE
:100C8000C7FA05D20020DFF89C130870022009E1A2
:100C90008648DFF87813096800EBC10050E90223A9
:100CA0008248DFF86813096800EBC100D0E9000151
:100CB00001F0C8FA1AD1DFF85803DFF850130968B9
:100CC00000EBC100D0E90001DFF84423DFF83C333A
:100CD0001B6802EBC30252E9022301F099FA05D224
:100CE0000120DFF8401308700320DBE06F48DFF8D5
:100CF0001C13096800EBC10050E902016B4ADFF8E0
:100D00000C331B6802EBC302D2E9002301F080FA26
:100D10001AD2BF48BD49096800EBC10050E9020181
:100D2000BB4ABA4B1B6802EBC302D2E9002301F0B5
:100D30006FFA09D20020DFF8E81208700020DFF80F
:100D4000E41208700420ADE05848B049096800EB8F
:100D5000C10050E90201554AAC4B1B6802EBC302CB
:100D6000D2E9002301F054FA1AD2A948A749096828
:100D700000EBC100D0E90001A54AA44B1B6802EBBF
:100D8000C30252E9022301F043FA09D20020DFF83E
:100D9000901208700120DFF88C120870052081E0A5
:100DA00042489A49096800EBC100D0E900013F4A76
:100DB000964B1B6802EBC30252E9022301F028FAAA
:100DC0001AD293489149096800EBC10050E9020129
:100DD0008F4A8E4B1B6802EBC302D2E9002301F05D
:100DE00017FA09D20120DFF8381208700020DFF866
:100DF00034120870062055E02C488449096800EB3D
:100E0000C100D0E90001294A804B1B6802EBC302F4
:100E100052E9022301F0FCF91AD27D487B490968A6
:100E200000EBC100D0E90001794A784B1B6802EB66
:100E3000C30252E9022301F0EBF909D20120DFF8E5
:100E4000E01108700120DFF8DC110870072029E0AC
:100E500016486E49096800EBC10050E902231348A7
:100E60006A49096800EBC100D0E9000101F0EAF924
:100E700018D167486549096800EBC10050E90223B1
:100E800063486249096800EBC100D0E9000101F044
:100E9000D9F907D10220624908700220614908701F
:100EA0000820FFE702BD000004000020706D002054
:100EB00028880020000000202C04014030880020F9
:100EC0002C00014070B500262DE0574850F8260050
:100ED000422827D155480068401C544908605448AE
:100EE00000685449544A126841F822005248006888
:100EF000401C5149086015E04B4850F82600532823
:100F0000E3D14B4800684D494D4A126841F8220030
:100F10004C484B49096840F8216049480068401C2A
:100F200047490860761C4848006886426DDA3E48AA
:100F300050F826004C28DFD13D480068401C3C4951
:100F40000860394800EB860080680A22364901EBC8
:100F50008601C96802FB0010B0F5047000F084F847
:100F600004000D00304800EB86004069303800F086
:100F70007BF8364A364B00F09DF822002B0000F03B
:100F800063FE344A344B1B6802EBC302C2E9000122
:100F900031480068401C30490860234800EB860057
:100FA000C0690A22204901EB8601096A02FB001090
:100FB000B0F5047000F058F804000D001A4800EB7A
:100FC0008600806A303800F04FF8204A204B00F04D
:100FD00071F822002B0000F037FE0D4A1F4B1B68F2
:100FE00002EBC302C2E900011C480068401C1B4917
:100FF000086001201A491B4A126841F8220019486A
:101000000068401C174908608CE770BD008800200C
:10101000F079002010880020148800200000F0BF24
:1010200008000020090000200C0000201C8800207F
:10103000408800202C4E002018880020388700208F
:101040000C880020708600203C8800209A9999998D
:101050009999B93F706D002004880020088800200D
:10106000CC5D00202088002010F0004160B148BF16
:101070004042B0FA80F29040D21CC2F5846241EA4C
:10108000025202EBD021400570470EE0026843682F
:10109000024408305FEAC37C44BF4B445B1E52F8F5
:1010A00004CB43F804CB091FF9D150F8041B0029E5
:1010B000ECD1704730B540F2FF7C1CEA11541DBFE3
:1010C0001CEA1355644565453FE0641981EA030C49
:1010D0006FF35F530CF0004C43F48013C90241F0EE
:1010E000004141EA505EC5021100A5FB0202002842
:1010F0004FF00000EEFB01204FF00001E3FB052163
:1011000018BF42F00102401800214941E3FB0E01E3
:10111000A4F580640D0302D292184041494154F174
:10112000010470DD450872F1004250F1000051EBFE
:101130000451A1F5801102D441EA0C0130BD40F206
:10114000FF7E4CEA0E51002030BD0CEA1355644579
:1011500018BF654581EA030C0CF0004C41D050EA01
:10116000410E1CBF52EA430E02E06146002030BD32
:1011700024422C441BD15FEA050EF6D0090302BFBE
:1011800001460020AEF1140EB1FA81F5AEEB050474
:1011900001FA05FE0C35C5F1200100FA05F5C8403D
:1011A0004EEA000E6FF35F5343F480139CE733F075
:1011B0000043B3FA83F504BFB2FA82FE75440B3DD7
:1011C000641BB5F1200E2FBF02FA0EF3AB40C5F140
:1011D000200E22FA0EFE38BF43EA0E03AA40641C1A
:1011E0007CE750EA410E14BF52EA430E6FF0000153
:1011F0004FF4001515EB430F8EBF194615EB410F49
:101200009DE7B4D830BDD4F10104B4F120050FDA64
:10121000C4F12005520828BF42F0010210FA05FE71
:1012200001FA05F57244E2BFE0402843E1400FE0D7
:10123000352C9ADCC5F1200452EA400220FA05F26E
:1012400018BF42F0010231FA05F0A1400A43002123
:1012500072F1004250F1000051EB0C0130BD000072
:10126000C1F30A5340F21E42D31A0CDDCA0283F3C3
:10127000070342EA505242F00042DA4002EBE172C8
:1012800082EAE17070476FEAE17203F2E13008B17F
:1012900082F0004070470000DFF8AC08006850F0B2
:1012A0002000DFF8A4180860DFF8A0080168DFF864
:1012B000A0080143DFF894080160DFF8980800688F
:1012C00030F47F40DFF88C180860DFF88C08016884
:1012D000DFF87C080143DFF880080160DFF86C0864
:1012E000006840F4AA4050F05500DFF8601808602C
:1012F000DFF860080068000A0002DFF8581808608C
:10130000DFF85408006840F4AA4050F05500DFF8B8
:1013100048180860DFF83008006850F04000DFF837
:1013200028180860DFF83408006880B2DFF82C184D
:101330000860DFF82C08006880B2DFF82418086025
:10134000DFF80408006850F00800DFF8FC170860B8
:10135000DFF81008006880B2DFF808180860DFF8CE
:101360000808006880B2DFF8001808607047DFF8EE
:10137000D807006850F01000DFF8CC170860DFF8DD
:10138000EC07006850F00100DFF8E0170860DFF8B4
:10139000E007006850F40020DFF8D4170860DFF899
:1013A000D407006850F44020DFF8C8170860DFF861
:1013B000C807006830F40070DFF8BC170860DFF879
:1013C000BC07006850F48020DFF8B0170860DFF831
:1013D000B007006850F01000DFF8A4170860DFF8CD
:1013E000A40701884FF6EF700140DFF898070180ED
:1013F000DFF8900701884FF6FD700140DFF88407A1
:101400000180DFF8800701884FF6FB700140DFF8AC
:1014100074070180DFF86C0701884FF6F770014010
:10142000DFF860070180DFF85C0701884FF67F7006
:101430000140DFF850070180DFF8480701884FF6C8
:10144000FF400140DFF83C070180DFF838070188E2
:101450004FF69F700140DFF82C070180A720DFF8CE
:10146000281708800920DFF824170860DFF8200714
:10147000008850F00100DFF818170880DFF8140723
:10148000008850F00200DFF80C170880DFF808072A
:1014900001884FF6FC700140DFF8FC060180DFF8A0
:1014A000F80601884FF6FB700140DFF8EC0601807A
:1014B000DFF8E40601884FF6F7700140DFF8D80640
:1014C0000180DFF8D406008850F03000DFF8C8163D
:1014D0000880DFF8C806008850F00100DFF8BC166D
:1014E0000880DFF8B80601884FF6FD700140DFF88C
:1014F000AC0601800120DFF8A8160860DFF890062E
:1015000001884FF6FE700140DFF884060180DFF8A5
:101510008006008850F00200DFF874160880DFF8BB
:101520008406006850F00060DFF878160860DFF885
:101530007806008850F40040DFF86C160880DFF869
:10154000440601884FF6FE700140DFF8380601803E
:101550007047DFF8F405006850F00400DFF8E81584
:101560000860DFF80806006850F00200DFF8FC159C
:101570000860DFF83806006850F40050DFF82C16D9
:101580000860DFF82C06006850F44050DFF82016A1
:101590000860DFF82006006830F04000DFF814161D
:1015A0000860DFF81406006850F48050DFF8081671
:1015B0000860DFF80806006850F04070DFF8FC159E
:1015C0000860DFF8FC0501884FF6EF700140DFF896
:1015D000F0050180DFF8E80501884FF6FD70014055
:1015E000DFF8DC050180DFF8D80501884FF6FB70D5
:1015F0000140DFF8CC050180DFF8C40501884FF613
:10160000F7700140DFF8B8050180DFF8B405018804
:101610004FF67F700140DFF8A8050180DFF8A005D4
:1016200001884FF6FF400140DFF894050180DFF8A4
:10163000900501884FF69F700140DFF88405018016
:10164000A720DFF8801508800920DFF87C150860E6
:10165000DFF8780501884FF6FE700140DFF86C0571
:101660000180DFF86805008850F00200DFF85C15A3
:101670000880DFF85C05008850F00200DFF85015A4
:101680000880DFF8500501884FF6FC700140DFF854
:1016900044050180DFF83C0501884FF6FB700140EE
:1016A000DFF830050180DFF82C0501884FF6F77070
:1016B0000140DFF820050180DFF81805008850F0B0
:1016C0003000DFF810150880DFF80C05008850F0B6
:1016D0000100DFF804150880DFF8FC0401884FF6EC
:1016E000FD700140DFF8F00401800120DFF8EC1408
:1016F0000860DFF8D80401884FF6FE700140DFF87B
:10170000CC040180DFF8C404008850F00200DFF848
:10171000BC140880DFF8C804006850F48040DFF88B
:10172000C0140860DFF8BC04008850F40040DFF803
:10173000B4140880DFF8880401884FF6FE70014079
:10174000DFF87C0401807047DFF8FC03006850F08C
:101750000200DFF8F4130860DFF88C04006850F032
:101760000400DFF884140860DFF88004006850F497
:101770000030DFF878140860DFF87404006850F473
:101780004030DFF86C140860DFF86804006830F45B
:101790008070DFF860140860DFF85C04006850F4C3
:1017A0008030DFF854140860DFF85004006850F00F
:1017B0000200DFF84814086040F24730DFF84014B8
:1017C00008806320DFF83C140860DFF83C040188DF
:1017D0004FF6EF700140DFF830040180DFF8280495
:1017E00001884FF6FD700140DFF81C040180DFF82E
:1017F000180401884FF6FB700140DFF80C040180EB
:10180000DFF8040401884FF6F7700140DFF8F803B1
:101810000180DFF8F403008850F08000DFF8E8135F
:101820000880DFF8E40301884FF6FF400140DFF84D
:10183000D8030180DFF8D00301884FF69F70014084
:10184000DFF8C4030180DFF8C403008850F480701F
:10185000DFF8B8130880DFF8B40301884FF6FF50B3
:101860000140DFF8A80301803220DFF8A4130860EC
:10187000DFF8A00301884FF6FC700140DFF8940305
:101880000180DFF89003008850F00800DFF884132F
:101890000880DFF88003008850F06000DFF87413E0
:1018A0000880DFF87003008850F08000DFF86413D0
:1018B0000880DFF85403008850F00100DFF8481377
:1018C00008807047A048006850F008009E490860F2
:1018D000A648006850F48040A4490860A148006808
:1018E00080B2A0490860DFF83003006850F0330090
:1018F000DFF824130860DFF82403006850F4407018
:10190000DFF818130860DFF81803006850F440701F
:10191000C3490860A348006850F40000A14908606A
:10192000704780B58848006850F00100864908601B
:10193000BC48006850F40020BA490860BA48006802
:1019400050F44020B8490860B848006850F0700072
:10195000B6490860B348006850F40010B149086007
:10196000B148006850F44010AF490860AF480068C3
:1019700050F4E060AD4908607C48006850F0100009
:101980007A4908604FF4165000F037F8A8480188EB
:101990004EF6FF700140A6480180A54801884FF629
:1019A000FF300140A2480180A148008850F00400A7
:1019B0009F4908809E48008850F008009C49088094
:1019C0009C4801884CF6FF7001409A480180002035
:1019D000994908809648008850F020009449088072
:1019E0007F48006850F020007D49086090480088DA
:1019F00050F400508E49088001BD00218F4A00211B
:101A000000218B490988090405D519214A43400062
:101A1000B2FBF0F204E019214A438000B2FBF0F27D
:101A20006420B2FBF0F109010B001B097FF0630099
:101A300000FB03227E480088000408D5D000323025
:101A40006422B0FBF2F010F00700014307E0100140
:101A500032306422B0FBF2F010F00F0001437848FE
:101A60000180704738B50400002504E04FF47A7017
:101A700000F008F86D1C2800210080B289B288426D
:101A8000F4D331BD81B080B211214843009002E00F
:101A90000098401E009000980028F9D101B07047CE
:101AA0006848006850F480406649086044480188EE
:101AB0004FF6FE700140424801807047614800685F
:101AC00030F480405F4908603D48008850F00100D4
:101AD0003B49088070475B48006850F40040594912
:101AE000086070475748006830F400405549086066
:101AF00070475448006850F48050524908602148AB
:101B000001884FF6FE7001401E48018070474D4825
:101B1000006830F480504B4908601A48008850F043
:101B200001001849088070474648006830F40050AA
:101B30004449086070474348006850F400504149E8
:101B40000860704700000000303802400014024076
:101B500000005555041402400814024000180240C9
:101B60000C180240000C02400C0C024044380240A9
:101B70000010024008100240041002400C10024005
:101B80002410024000000140280001402C000140C8
:101B90000C000140140001401800014020000140E9
:101BA0003400014000E100E0440001400008024030
:101BB00008080240040802400C08024020080240C5
:101BC00000040140280401402C0401400C040140A1
:101BD0001404014018040140200401403404014071
:101BE00004E100E0440401404038024000040240A7
:101BF00008040240040402400C0402402404024091
:101C0000280800402C080040000800402008004040
:101C10003C0800401C080040103801400C3C0140CA
:101C2000003C014000000240080002402400024045
:101C30000C100140101001401410014000BD0105BE
:101C4000081001401414024070B491EA030F4FF0E1
:101C5000004540F1BF806B40841A71EB030604D24B
:101C60006E40001BB141121973414FF4001C1CEB74
:101C7000410F34BF7CEB430683E00C0DA4EB1356FD
:101C8000362E00F37C80012E45EAC32341DC43EA73
:101C9000525312BFD20292025B08240545EAC121C9
:101CA00041EA5051D2EBC020994125D407D1B0FA76
:101CB00080F610FA06F162D00020203608E0B1FA72
:101CC00081F6B140C6F1200220FA02F21143B04081
:101CD0004FEAF474B4EB465434F001064FEA74044E
:101CE0000AD8D6F50016760D04F00044F04061FAEB
:101CF00006F25040F1404840C00A40EA415021F00D
:101D0000004128BF5FEA500550F1000044EBD121AB
:101D100035E0DB0A45EAC121C90AB6F120050EDD2E
:101D200042EA0242120CC5F1200603FA06F6EB4025
:101D300042EA06056D42984161F100010DE062FA48
:101D400006F5F240554063FA06FC82EA0C02F340C5
:101D50005A406D42904161EB030111F4801F05D19F
:101D6000641E620502D06D004041494121F480119A
:101D7000430875F1004350F1000041EB045170BC81
:101D800070471CEB410F15D223F0004352EA430683
:101D90000BD04FEA4C0CBCEB410F04D80C0D661E67
:101DA000342EB7DDEBE7801A994150EA410608BFAF
:101DB0000021E4E708BF1CEB430F28BF6FF00001D0
:101DC000DDE7000070B491EA030F4FF000457FF5A6
:101DD00043AF6B40841A71EB030603D2001BB14181
:101DE000121973414FF4001C1CEB410F34BF7CEB04
:101DF000430442E00C0DA4EB1356352E4FDC45EAAC
:101E0000C323DB0A45EAC121C912B6F120050DDD65
:101E100063FA05F6EB4086EA0305124218BF45F067
:101E20000105C01851F100010CD213E062FA06F569
:101E3000F2405540F3415A40B340F3405A408018B5
:101E4000594107D349085FEA30005FEA350528BFEA
:101E500045F0010501F58011420875F1004250F18D
:101E6000000041EB04514E0016F5001F70BC38BF56
:101E700070470020090D090570471CEB410F10D277
:101E800052EA43060BD0BCEB410F05D80C0DAB4317
:101E9000661E342EB6DD02E0AB438018594170BC9B
:101EA000704770BC7047000040F2FF7C0B0D4DD0B6
:101EB000634566D230B421EA035141F4801103F244
:101EC000FD3C5FEA5C0C01D300184941890041EAFE
:101ED000907180004FF440140023E202D50AB1F55E
:101EE000100107D46D081DD2091B6419001849415F
:101EF000491BF7D56D080AD20919641B001849411E
:101F0000491BEFD56D08F7D301E0520817D0C01870
:101F100061419B1AAC4100184941801AA941F4D48F
:101F200052080AD0C01AA1419B186C4100184941BF
:101F3000801AA941E9D45208F4D15B1C6C416108B4
:101F40004FEA330001EB0C5130BC704750EA0103FB
:101F5000FBD030B4B1FA81F311B9B0FA80F41B1997
:101F60000B3BB3F120042FBF00FA04F19940C3F1F9
:101F7000200420FA04F438BF21439840D3F1010330
:101F80009DE7634514BF50EA410CDEE711F5801F61
:101F9000DBD8D943AFF300807047002848BF4042E8
:101FA00070470000F0B540F2FF7581EA030C0CF0B9
:101FB000004C15EA11541DBF15EA1357AC42AF424D
:101FC000E5E0BC41C1F31301C3F31303801A994147
:101FD00043F4801304D2641E00184941801859410B
:101FE000C90241EA5051B1FBF3F603FB1611A2FB03
:101FF0000675D7EBC020A94102D2761E8018594140
:10200000C90241EA5051B1FBF3FE03FB1E11A2FBD2
:102010000E75D7EBC020A94103D2AEF1010E801896
:102020005941890241EA9051760546EA8E2EB1FB6C
:10203000F3F603FB1611A2FB0675D7EB8020A9412E
:1020400002D2761E80185941C90241EA50514EEA27
:10205000060EB1FBF3F603FB1611A2FB0675D7EBD8
:10206000C020A94102D2761E80185941C90241EA16
:102070005051B1FBF3F703FB1711A2FB0735D3EB6C
:10208000C020A94167F100070CBF004247F00107DB
:1020900066F3D5274FEA1E31B80814F5806412DDC7
:1020A000BD0775F1004250EB0E5051EB045111F594
:1020B000801F5CBF41EA0C01F0BD4CF07F6141F034
:1020C000E0410020F0BDBD076D0840EA0E5041F42C
:1020D0008011D4F10104B4F120060ADAC4F120061B
:1020E0000200E04001FA06F3E1401843B240154314
:1020F0000EE0342C13DCC6F1200445EA40056D08DF
:1021000020FA06F2154321FA06F0A1400D43002102
:1021100075F1004250F1000051EB0C01F0BD0020C0
:102120005FEA0C01F0BDCFB992185B41B3FA83F7B7
:1021300004BFB2FA82F6BF190B3FB7F120062FBFDA
:1021400002FA06F3BB40C7F1200622FA06F638BFB2
:102150003343BA401CB1E419641E33E77F4231F0C7
:102160000041B1FA81F404BFB0FA80F6A4190B3C27
:10217000B4F120062FBF00FA06F1A140C4F12006F9
:1021800020FA06F638BF3143A0403C1B1AE7AC42A8
:102190001ABF05EA1357AF4212E050EA41061CBFCE
:1021A00052EA4306BFE750EA4107304661461CBF8A
:1021B00041EA0551F0BD52EA430C08BFC143F0BDEE
:1021C00000204FF4001616EB410F98BF16EB430F9B
:1021D00008BF16EB410F24BFC14305E016EB430FC8
:1021E0000CBF61464CEA0551F0BD0000400D40F2C5
:1021F0001E4C40EAC120BCEB115C40F0004003D40F
:102200008CF30701C84070476FEAE1707047000027
:1022100041EA030C50EA4C0C52EA0C0C4FF4001C3F
:1022200009D307D01CEB410F9CBF1CEB430F8B4223
:1022300008BF824270471CEB430FFBD8994208BF8E
:1022400090427047904205D1994204D041EA030C74
:1022500050EA4C0C70474FF4001C1CEB410F38BF88
:102260008942704780B54FF47A70FFF7FBFBFFF7A8
:1022700029FBFFF711F8FFF77AF8FFF76AF9FFF784
:1022800063FAFFF74EFBDFF8D002006830F0100071
:10229000DFF8C4120860FFF71EFCFFF70FFCFFF722
:1022A0004AFCFFF734FC00F00CF9DFF8B0020078CC
:1022B00001280BD1FEF706FE4FF4FA70FFF7D2FBB0
:1022C0000120A74908700020A4490870A44800789C
:1022D000012825D1A3480068A349096888421FDA6C
:1022E000A248A349096850F821009E49096888421C
:1022F0000AD19F480068401C9D49086096480068C4
:1023000090F010009449086096480068401C954978
:102310000860FEF732FCFDF737FF00209049087097
:1023200090480068904909688842BCD18C48007880
:102330000128B8D18848006830F01000864908604C
:10234000B1E780B58B480088800737D58948018878
:102350004FF6FD70014087480180874800780028CB
:102360000FD186480068401C844908608348006893
:1023700083490968884204DBFFF7BBFB01207849E9
:1023800008707D48007801280FD17C480068401E05
:102390007A4908607A48006878490968884204DB0D
:1023A000FFF7A7FB01206E490870734800780228E8
:1023B00004D1FFF79EFB01206949087001BD80B57B
:1023C00070480088800737D56E4801884FF6FD7049
:1023D00001406C4801806C48007800280FD16B48A0
:1023E0000068401C694908606848006868490968D5
:1023F000884204DBFFF754FB01205949087062480A
:10240000007801280FD161480068401E5F490860CC
:102410005F4800685D490968884204DBFFF740FBBC
:1024200001204F49087058480078022804D1FFF76E
:1024300037FB01204A49087001BD56480068C005B5
:1024400005D55448006850F48070524908605148DE
:102450000068800505D54F48006850F400704D496C
:10246000086070474C480088800629D54B48008892
:102470004B4908704A4800780A2821D0484800781B
:102480000D281DD0464800786E2819D044480078A1
:102490004449454A126841F82200424842490968C5
:1024A00050F821005A2806D101202C4908703E48D6
:1024B00000683E4908603C480068401C3A49086092
:1024C000704780B53A480068C0050FD439480068A5
:1024D00000280BD13220FFF7C5FA35480068C00547
:1024E00004D4FFF7DDFA0120324908603048006863
:1024F00080050FD43220FFF7B5FA2D48006880051B
:1025000008D42D480068002804D1FFF7F2FA012012
:10251000294908602748006801281BD1264800681F
:10252000012817D1FFF7DEFAFFF7C8FA41F2883029
:10253000FFF798FAFFF7B4FA02201E49086002205C
:102540001D490860114800681C4908600B48006874
:102550001B49086001BD0000141402405A88002085
:1025600059880020388800204088002038870020C3
:102570004488002010000140090000202C88002021
:10258000308800201004014008000020248800202A
:1025900028880020143C0140001001400410014034
:1025A000588800200C000020348800203C8800203F
:1025B000100C0240488800204C88002050880020E1
:1025C0005488002080B54548006850F00100434918
:1025D00008600020424908604048016841480140C5
:1025E0003E4801604048414908603C48006830F47A
:1025F00080203A49086000203D49086000F005F855
:102600005FF000603B49086001BD82B0002001908E
:10261000002000903148006850F480302F49086055
:102620002E48006810F4003000900198401C019082
:102630000098002803D10198B0F5A04FF0D12748A9
:102640000068800302D50120009001E00020009086
:10265000009801283ED12848006850F08050264953
:1026600008602648006850F44040244908601C482F
:1026700000681B4908601A48006850F40040184977
:1026800008601748006850F4A050154908601C48BD
:10269000164908601148006850F080700F490860C2
:1026A0000E4800688001FBD540F2057015490860AE
:1026B0000B480068800880000949086008480068E5
:1026C00050F00200064908600548006810F00C0050
:1026D0000828F9D102B0704700000000003802401D
:1026E00008380240FFFFF6FE103000240438024094
:1026F0000C38024008ED00E0403802400070004015
:1027000008544007003C024030B4002512E050F865
:10271000042BD30744BF4A44521E091F042942F820
:10272000045BFAD213468C0744BF15809B1CC90773
:1027300048BF1D7050F8041B0029E8D130BC704719
:1027400010B5074979441831064C7C44163404E02E
:102750000A68081D114488470146A142F8D110BDFE
:102760000800000028000000A1FFFFFF50880000C3
:102770000C0000200000000013E9FFFF0C00000027
:1027800080000000000000200000000000F00DF8B4
:10279000002801D0FFF7D4FFAFF300800020AFF393
:1027A0000080FFF75FFD00F002F80120704700F0A5
:1027B00001B800000746384600F002F8FBE70000C9
:1027C00080B5AFF30080024A11001820ABBEFBE7D2
:1027D000260002000548014603B4684680F30988D4
:1027E000AFF30080AFF30080FFF7D0FFA5EDF5FE5B
:1027F0000148804701480047C5250008D527000843
:1028000064000000DC05000003030000FFF7FEBFCA
:10281000FFF7FEBFFFF7FEBFFFF7FEBFFFF7FEBFEC
:10282000FFF7FEBFFFF7FEBFFFF7FEBFFFF7FEBFDC
:10283000FFF7FEBFFFF7FEBFFFF7FEBFFFF7FEBFCC
:10284000FFF7FEBFFFF7FEBFFFF7FEBFFFF7FEBFBC
:10285000FFF7FEBFFFF7FEBFFFF7FEBFFFF7FEBFAC
:10286000FFF7FEBFFFF7FEBFFFF7FEBFFFF7FEBF9C
:10287000FFF7FEBFFFF7FEBFFFF7FEBFFFF7FEBF8C
:10288000FFF7FEBFFFF7FEBFFFF7FEBFFFF7FEBF7C
:10289000FFF7FEBFFFF7FEBFFFF7FEBFFFF7FEBF6C
:1028A000FFF7FEBFFFF7FEBFFFF7FEBFFFF7FEBF5C
:1028B000FFF7FEBFFFF7FEBFFFF7FEBFFFF7FEBF4C
:1028C000FFF7FEBFFFF7FEBFFFF7FEBFFFF7FEBF3C
:1028D000FFF7FEBFFFF7FEBFFFF7FEBFFFF7FEBF2C
:1028E000FFF7FEBFFFF7FEBFFFF7FEBFFFF7FEBF1C
:1028F000FFF7FEBFFFF7FEBFFFF7FEBFFFF7FEBF0C
:10290000FFF7FEBFFFF7FEBFFFF7FEBFFFF7FEBFFB
:10291000FFF7FEBFFFF7FEBFFFF7FEBFFFF7FEBFEB
:10292000FFF7FEBFFFF7FEBFFFF7FEBFFFF7FEBFDB
:10293000FFF7FEBFFFF7FEBFFFF7FEBFFFF7FEBFCB
:10294000FFF7FEBFFFF7FEBFFFF7FEBFFFF7FEBFBB
:10295000FFF7FEBFFFF7FEBFFFF7FEBFFFF7FEBFAB
:08296000FFF7FEBFFFF7FEBF09
:04000005080027D5F3
:00000001FF
